:100000000C94C0040C9407050C9407050C94070588
:100010000C9407050C9407050C9407050C94070530
:100020000C9407050C9407050C94D5270C94A9286B
:100030000C940C230C9407050C9407050C940705ED
:100040000C9407050C9407050C9407050C94070500
:100050000C9407050C9463230C9407050C94070576
:100060000C9407050C9407050C9407050C940705E0
:100070000C9407050C9407050C9407050C940705D0
:100080000C9407050C9407050C9407050C940705C0
:100090000C9407050C9407050C9407050C940705B0
:1000A0000C9407050C9407050C9407056875680AFD
:1000B0000046756E6374696F6E0A0044656661750B
:1000C0006C740A004C617965723A200029001A00AC
:1000D0000800150017001C000C0013002F002A0058
:1000E0004A002B001400070009000A001800120043
:1000F0000F00300031004D00E10004001600060042
:1001000005000B000E003300340028005200E00010
:100110001D001B00190011000D00360037003800CB
:10012000E5005100E300E2002C002C002C00100040
:10013000E6000151E40050004F0035001F00200090
:10014000210022002300250027002D004C004E0036
:1001500039001E003C003D003E0024002600420005
:100160002E0045004B0001003A003B000100010059
:100170003F004100430044000100005C0100010019
:100180000100010001004000010001000100010028
:100190000100010001000100010001000100010057
:1001A0000100010001000000000101010101010145
:1001B000010102020202020202020203030303031C
:1001C00003030304040404040404050505050506EB
:1001D00006060606070707070708080808090909A9
:1001E000090A0A0A0B0B0B0C0C0C0D0D0D0E0E0E52
:1001F0000F0F0F10101111111212131314141515E3
:1002000016161717181819191A1A1B1B1C1D1D1E54
:100210001E1F2020212222232424252626272829A8
:10022000292A2B2C2D2D2E2F3031323233343536D6
:100230003738393A3B3C3D3E3F40414243444546D6
:100240004748494A4C4D4E4F5051535455565859B2
:100250005A5B5D5E5F616264656668696B6C6D6F59
:100260007072737577787A7B7D7E808283858788CC
:100270008A8C8E8F91939596989A9C9EA0A2A3A506
:10028000A7A9ABADAFB1B3B5B7BABCBEC0C2C4C607
:10029000C9CBCDCFD1D4D6D8DBDDDFE2E4E7E9EBC3
:1002A000EEF0F3F5F8FAFDFF00AE00AF00DA0281E0
:1002B000FFD9F1DB20A4A62EAF00A0C000A1C8008A
:1002C000AED580A81FD300408D14200007087F08FA
:1002D00007003E5B4F5B3E003E6B4F6B3E001C3E9B
:1002E0007C3E1C00183C7E3C18001C577D571C00AF
:1002F0001C5E7F5E1C0000183C180000FFE7C3E78F
:10030000FF00001824180000FFE7DBE7FF0030487B
:100310003A060E00262979292600407F05050700A8
:10032000407F05253F005A3CE73C5A007F3E1C1C9D
:100330000800081C1C3E7F0014227F2214005F5F0F
:10034000005F5F0006097F017F00006689956A00F3
:1003500060606060600094A2FFA2940008047E04C4
:10036000080010207E20100008082A1C0800081C25
:100370002A0808001E10101010000C1E0C1E0C0085
:1003800030383E383000060E3E0E060000000000F9
:10039000000000005F000000000700070000147F5D
:1003A000147F1400242A7F2A120023130864620099
:1003B000364956205000000807030000001C224167
:1003C00000000041221C00002A1C7F1C2A00080893
:1003D0003E08080000807030000008080808080087
:1003E0000000606000002010080402003E514945F2
:1003F0003E0000427F4000007249494946002141C9
:10040000494D33001814127F100027454545390027
:100410003C4A4949310041211109070036494949FF
:100420003600464949291E00000014000000004023
:1004300034000000000814224100141414141400A5
:100440000041221408000201590906003E415D598D
:100450004E007C1211127C007F49494936003E4112
:10046000414122007F4141413E007F4949494100CD
:100470007F09090901003E41415173007F080808C6
:100480007F0000417F4100002040413F01007F0884
:10049000142241007F40404040007F021C027F0048
:1004A0007F0408107F003E4141413E007F09090959
:1004B00006003E4151215E007F0919294600264968
:1004C0004949320003017F0103003F4040403F00A3
:1004D0001F2040201F003F4038403F006314081495
:1004E00063000304780403006159494D4300007F11
:1004F00041414100020408102000004141417F00B9
:10050000040201020400404040404000000307088C
:1005100000002054547840007F2844443800384478
:1005200044442800384444287F0038545454180068
:1005300000087E09020018A4A49C78007F08040427
:10054000780000447D4000002040403D00007F10C6
:100550002844000000417F4000007C0478047800BB
:100560007C0804047800384444443800FC182424EF
:10057000180018242418FC007C08040408004854BF
:100580005454240004043F4424003C4040207C0098
:100590001C2040201C003C4030403C0044281028D7
:1005A00044004C9090907C004464544C44000008FB
:1005B00036410000000077000000004136080000CE
:1005C0000201020402003C2623263C000000000039
:1005D0000000404040F0F8F8FF38FFF8F83FF8F826
:1005E000FF38FFF8F8F040404000000000000080B5
:1005F000C0C0C0800000C0C08000000080C0C0003B
:10060000C0C0000080C0C00000000000C0C0C0C06A
:10061000C000C0C00000000000000000000000009A
:1006200000000000000000000000000000000000CA
:1006300000000000000000000000000000000000BA
:100640000000000000000000000000C0F0F8FC3EC8
:100650001E06010000007F4141417F007F41414172
:100660007F000080C0E07E5B4F5BFEC00000C000EA
:10067000DCD7DEDEDED7DC00C000000000000000BA
:10068000000000000000000000000000000000006A
:100690000000494949FFFFFFFFE0DFBFBF00BFBFC8
:1006A000DFE0FFFFFFFF49494900000000001F3F56
:1006B0006060E0BF1F007F7F071E381E077F7F003E
:1006C0007F7F0E1F3B716000000000007F7F0C0CDD
:1006D0000C007E7E007F7E0303007F7E03037E7E10
:1006E00003037F7E000F3E703C063C703E0F0032DD
:1006F0007B49493F7E007F7E0303001E3F69696F8F
:100700002600000000000000000000030F1F3F3C17
:100710007870600000007F4141417F007F4141418E
:100720007F00307B7F7830202030787F3B000300D3
:100730000F7F0F0F0F7F0F0003000000000000006D
:1007400000000000000000000000000000000000A9
:100750000000010101070F0F7F0F7F0F0F7E0F0FAA
:100760007F0F7F0F0F070101010000000000000054
:100770000000000101000000000000000000000077
:100780000000000000000000000000000000000069
:100790000000000000000000000000000000000059
:1007A0000000000000000000000000000000000049
:1007B0000000000000000000000000000000000039
:1007C0000000000000000000000000000000000029
:1007D0000000000000000000000000000000000019
:1007E0000000000000000000000000000000000009
:1007F00000000000000000000000000000000000F9
:10080000000000000000000000000000120346008D
:1008100072007500690074006200610072000000DF
:1008200016036600720075006900740079006B00A1
:1008300065006500620000000403090409023B0032
:10084000020100A0FA0904000001030101000921CE
:10085000110100012240000705810308000A090474
:100860000100010300000009211101000122B6006E
:100870000705820320000A12011001000000086B26
:1008800066626601000102000105010902A10185FD
:10089000020901A100050919012908150025019582
:1008A00008750181020501093009311581257F95FF
:1008B000027508810609381581257F950175088123
:1008C00006050C0A38021581257F950175088106F9
:1008D000C0C005010980A101850319012AB70015CF
:1008E0000126B700950175108100C0050C0901A112
:1008F00001850419012AA002150126A0029501759F
:10090000108100C005010906A1018505050719E050
:1009100029E71500250195087501810205071900D1
:1009200029EF1500250195F07501810205081901CF
:100930002905950575019102950175039101C00581
:10094000010906A101050719E029E7150025019510
:1009500008750181029501750881010507190029B3
:10096000FF150026FF00950675088100050819018E
:100970002905950575019102950175039101C00046
:1009800011241FBECFEFDAE0DEBFCDBF04B603FEF9
:1009900027C080910B0590910C05A0910D05B09199
:1009A0000E058730904BA740B04BD1F410920B0549
:1009B00010920C0510920D0510920E0514BE84B70E
:1009C000877F84BF0FB6F894A895809160008861F6
:1009D00080936000109260000FBEE0E0F8E309959C
:1009E00011E0A0E0B1E0EAE3F6E502C005900D9267
:1009F000AE3AB107D9F725E0AEEAB1E001C01D92E9
:100A0000AB30B207E1F70E9411250C94F32A0C9445
:100A100000001F93CF93DF93182FD62F0E94090554
:100A2000C82F882341F0111106C0DD2349F08AEA5E
:100A30000E946B18CD2F8C2FDF91CF911F910895BD
:100A400089EA0E946B18F7CF60E084EC90E00E9486
:100A50004F116091700270917102809172029091B9
:100A600073020E940206882331F0813049F060E071
:100A70008CEA90E003C060E08BEB90E00C944F11A7
:100A800060E081EB90E0FACF81E0089581E0089585
:100A90000C94460508950C944A051F93CF93DF9359
:100AA00000D000D00F92CDB7DEB749835A836B8355
:100AB0003091140289819A8131111DC06623B9F0E9
:100AC0002223A9F00E94D61F182F682F89819A81AE
:100AD0000E94821F69817A81812F0F900F900F9061
:100AE0000F900F90DF91CF911F910C9462060E949E
:100AF000AE1F182FEFCF0E94D61F69817A81EDCFEC
:100B0000FC01262F408151816281738184810C9484
:100B10004D05CF93DF93EC0160E00E948005BE019C
:100B2000DF91CF910C944B050E9485080C94AA0884
:100B30000C94AD0808950E94EC1A0E949A052FEFBC
:100B400084E39CE0215080409040E1F700C0000029
:100B50000C9487230F931F93CF93DF938C0161E055
:100B60000E948005EC01B8010E9448058823D9F154
:100B7000B801CE010E9430138823A9F1B801CE013B
:100B80000E948213882379F1B801CE010E94A51436
:100B9000882349F1B801CE010E94E20E882319F1A1
:100BA000F8018281882361F0CB35FDE5DF0721F173
:100BB00070F4C115ECE5DE07A1F0CF3DDC45C9F0CE
:100BC000C801DF91CF911F910F910C944405CC3552
:100BD0008DE5D807A1F0CD35DD4591F70E947D2048
:100BE000EFCF0E949B0580E0DF91CF911F910F9185
:100BF00008950E94F621F7CF0E948620E1CF0E943F
:100C00008920DECFCF92DF92EF92FF926C01EE242B
:100C1000FF2420E0C114D104E104F10419F0C7015C
:100C2000B60120E1C72ED82EE92EFF24C114D1042D
:100C3000E104F10419F0285FC701B6016B017C01E2
:100C400054E0F694E794D794C7945A95D1F7C11419
:100C5000D104E104F10419F02C5FC701B6016B0166
:100C60007C0142E0F694E794D794C7944A95D1F773
:100C7000C114D104E104F10419F02E5FC701B601DB
:100C80009695879577956795672B682B692B09F063
:100C90002F5F822FFF90EF90DF90CF9008950895FF
:100CA0000C944F0681E008950C945206CF93C82F00
:100CB0000E9450068C2FCF910C94540690E080E057
:100CC00008950895972F70E02BE0929F600D711D9D
:100CD0001124FB0197E3899FE00DF11D1124EE0F14
:100CE000FF1FE453FF4F859194910895FC01EE0F8F
:100CF000FF1FE855FE4F859194910895CF93DF93A0
:100D00000E9462060E949307EC01811520E592077C
:100D100008F042C0811530E4930708F0BDC0883E5A
:100D2000910528F5803E910508F09DC0883A91050F
:100D300088F4853A910508F08FC08130910509F457
:100D400092C0009709F48FC0049708F08CC0D0E0DF
:100D5000C0E089C08F3B910508F489C0805C91098F
:100D6000C03CD105A0F30E947606EC017CC0811541
:100D7000904250F4C11581E0D80708F074C0CD3E10
:100D8000D10528F3D0656FC0C11590E3D90708F0ED
:100D900079C0CE019F70E7CF811525E5920758F500
:100DA000811534E5930708F0A6C0811542E5940744
:100DB00050F4C11581E5D80708F471C0DC2FCC27A9
:100DC000C16FD06A50C0982F969596959E0123705A
:100DD0003327C115D34508F07FC0C1E0D0E002C081
:100DE000CC0FDD1F2A95E2F720E2929FC00111246B
:100DF000C82BD92B6FC0C11589E5D807A8F4C11538
:100E000098E5D90708F07CC0C11526E5D20708F09F
:100E10009ECF8C2F0E942A08C82FD0E0DC2FCC2731
:100E2000CC27DF71D0621FC0C1153AE5D30708F4A3
:100E30006CC0CE0190568115904208F088CF8D2F5E
:100E40008F710E942A0890E0982F882788279F7129
:100E50009C012C2BE901E6CFC55AD0E0C15BDE4FE7
:100E6000C881D0E0D064CE01DF91CF910895C85AF7
:100E7000D0E0CC0FDD1FCF5DDE4F0990D881C02DB3
:100E8000D464F1CFCE019927D3FF03C0EC01D86C15
:100E9000EACFEC01D06CE7CFDF70D06AE4CFCE01AF
:100EA000E4E096958795EA95E1F783702C2F2695D7
:100EB0002695237090E2299F90011124382B8C2FC6
:100EC0008370C1E0D0E002C0CC0FDD1F8A95E2F74D
:100ED000C22BD32BDC68C7CFC1E0D0E002C0CC0F5F
:100EE000DD1F2A95E2F730E2939FC0011124C82B41
:100EF000D92BDA68B8CFD82FCC27C46FD06AB3CF3C
:100F0000DC2FCC27C06FD06AAECF8C2F8F700E94A1
:100F10002A0834E0D695C7953A95E1F7CF709C2F13
:100F2000EC01D069A0CF82389105B1F1B0F48133E2
:100F3000910509F475C048F48932910509F469C036
:100F40008A32910509F473C008958533910509F437
:100F500059C08933910501F10895833E9105A9F1A6
:100F600038F4803E9105F9F0823E910549F10895EB
:100F7000863E9105A9F1873E9105C9F1843E910510
:100F800019F52091C20221FF1FC08091C10284FD8A
:100F900014C087EE90E008952091C1022370A1F063
:100FA00080EE90E008952091C10220FD47C030916D
:100FB000C20230FF09C024FF44C090E080E004C0BA
:100FC0002091C10222FDF7CF08952091C10222FD98
:100FD0003BC03091C20230FDE3CF24FFF5CFEDCF0F
:100FE0002091C10223FFF0CF24FDE7CFD2CF209183
:100FF000C10223FD2CC03091C20231FFEECF84EE3E
:1010000090E008952091C10225FFDECF89E290E0B3
:1010100008952091C10225FFD7CF85E390E0089580
:101020002091C10226FFD0CF8AE290E0089520915E
:10103000C10226FFC9CF81E390E0089589E390E0E3
:10104000089583EE90E0089582EE90E0089586EE94
:1010500090E008959091C10292FF06C0282F287158
:101060002830F9F4877F846093FF06C0282F287109
:101070002831F1F4877E84612091C20220FF06C0EE
:10108000382F38713830D9F4877F816021FF06C04E
:10109000282F28712831D1F4877E816194FD877EC5
:1010A0000895282F24712430F9F68B7F8860DCCFD7
:1010B000282F2471243101F78B7E8861DDCF382FF2
:1010C0003171313019F78E7F8860E0CF282F217180
:1010D000213121F78E7E8861E1CF0C944B210E9453
:1010E00026098FE39CE90197F1F700C000000E94F8
:1010F000260980E00E94AF0880FF04C00E946D08AE
:101100000C94872308950C946F080E94512181113B
:1011100002C00E94F6210E945C2180939D020E94E1
:1011200064219093C2028093C1020E9483080E94AE
:101130006021682F70E090E080E00E94841E609142
:1011400070027091710280917202909173020C94FE
:10115000BE1E08950C94A90808950C94AC08E82FBD
:10116000F0E0EE0FFF1FE353FD4F80819181089562
:10117000089580EA8A95F1F7089500C008950C94C7
:10118000B908F894E82FE295EF70F0E031A1282F2C
:101190002F7081E090E001C0880F2A95EAF7982F20
:1011A0009095932391A392A1892B82A3789408957B
:1011B0000F931F93CF93DF9384EF0E94C10885EFB5
:1011C0000E94C10886EF0E94C10887EF0E94C108F3
:1011D00081E30E94C108C2E5D1E00DE511E08991EB
:1011E0000E94C1080C171D07D1F71092C40210927B
:1011F000C3021092CE021092CD021092C60210923B
:10120000C5021092D0021092CF021092C802109222
:10121000C7021092D2021092D1021092CA0210920A
:10122000C9021092D4021092D3021092CC021092F2
:10123000CB021092D6021092D50285E00E94A60938
:10124000DF91CF911F910F910C949405AF92BF92B3
:10125000DF92EF92FF920F931F93CF93DF93CDE531
:10126000D1E003EC12E0D12CEE24E394F12C89912F
:10127000F894E82FE295EF70F0E021A18F70A701BC
:1012800002C0440F551F8A95E2F7CA01922F982B8E
:1012900091A392A18095892382A378940E94BD088E
:1012A000E2E5F1E030E020E0B12CA12C4191A42F47
:1012B000A295AF70B0E090968C9190E04F7002C014
:1012C000959587954A95E2F780FD3BC0C701022EB0
:1012D00002C0880F991F0A94E2F7A82AB92A2F5F43
:1012E0003F4F2B30310511F7FE01319780810E946D
:1012F000C1080E94BF08F80180819181A816B90633
:1013000019F1B182A08281E0D82A0E5F1F4FF1E06F
:10131000C236DF0709F0ABCF2D2D45E06DEC72E052
:1013200083EC92E00E94A7090E9498058D2DDF9121
:10133000CF911F910F91FF90EF90DF90BF90AF90F2
:10134000089590E080E0C9CF80E0DECF0895FF925D
:101350000F931F93CF93DF93F82E092F162FD72FBC
:10136000C42F222349F081E08093B2010E943C23E4
:101370009093B1018093B0018091B2018823A1F0D4
:101380008091B0019091B1010E945423069760F0C2
:10139000EF2DF02FA12FBD2F90E080E0D0E08C1733
:1013A0009D0744F01092B201DF91CF911F910F91F0
:1013B000FF900895219131912D933D930196EFCFA8
:1013C0008091B90180FF12C06091050185E0689F9E
:1013D000B00111247595679575956795603871050D
:1013E000A8F561157105A1F1862F089581FF09C047
:1013F0006091050185E0689FB0011124759567959E
:10140000EDCF6091050182FD0AC08091B80188236B
:10141000D1F09091040160910501891728F085E0D1
:10142000689FB0011124DACF869FB001112485E0B6
:10143000869F9001879F300D1124692F70E0C901AC
:101440000E947B2ACBCF65E070E0CECF8FE7089576
:1014500081E008958091B90180FF0CC06091010185
:1014600070E075956795759567956115710549F1FA
:10147000862F089581FF06C06091010170E0759587
:101480006795F3CF6091010182FD0BC09091B70188
:101490009923A1F06091000180910101961738F025
:1014A000682F70E06038710500F38FE70895899F19
:1014B000C001112470E00E947B2AF4CF61E070E04B
:1014C000D7CF81E008958D3E31F40E94E0098195E7
:1014D0008093BD0108958E3E19F40E94E009F8CF73
:1014E0008F3E31F40E94E00981958093BC010895FC
:1014F000803F19F40E94E009F8CF893F29F40E9447
:101500002A0A8093BE0108958A3F21F40E942A0A84
:101510008195F7CF8B3F31F40E942A0A8195809301
:10152000BF0108958C3F19F40E942A0AF8CF9FE06A
:10153000980F983070F4815F990B21E030E001C082
:10154000220F8A95EAF78091BB01822B8093BB0121
:1015500008958D3F31F48091B90181608093B90184
:1015600008958E3F21F48091B9018260F7CF8F3FBB
:10157000B9F78091B9018460F1CF4091BC018D3EF3
:1015800059F48091BD0187FF0DC01092BD0141113A
:101590000BC01092B80108C08E3E81F48091BD014D
:1015A00018169CF3442381F08091BE019091BF01F5
:1015B000892B09F05AC01092B70108958F3E49F463
:1015C00047FFF0CF1092BC018091BD018111ECCF9B
:1015D000E0CF803F19F41416ACF3E4CF9091BE0134
:1015E000893F29F41916F4F61092BE01DBCF8A3F29
:1015F00019F497FFD7CFF8CF9091BF018B3F29F413
:1016000097FFD0CF1092BF01CDCF8C3F19F41916A0
:10161000CCF3C8CF9FE0980F983090F4815F990B7E
:1016200021E030E0B90102C0660F771F8A95E2F72A
:10163000CB0180959091BB0189238093BB01B2CFF0
:101640008D3F31F48091B9018E7F8093B901AACF8B
:101650008E3F21F48091B9018D7FF7CF8F3F09F044
:10166000A1CF8091B9018B7FF0CF08950E943C23D8
:101670009C019091BC018091BD01982B21F0309389
:10168000B6012093B5019091BE018091BF01982BC6
:1016900021F03093B4012093B3018AEB91E00C94D4
:1016A000E315EF92FF920F931F93CF93DF9300D038
:1016B00000D000D0CDB7DEB786E0EAEBF1E0DE0186
:1016C000119601900D928A95E1F7E090BC01F0909F
:1016D000BD010091BE011091BF011092BC0110929A
:1016E000BD011092BE011092BF018E2D8F2991F085
:1016F0008091B5019091B6010E945423AC01909164
:10170000B801992309F43FC080910601841715069A
:1017100008F447C0802F812B91F08091B301909104
:10172000B4010E945423AC019091B701992309F4AC
:1017300077C0809102018417150608F47FC080915C
:10174000BC019091BD01892B9091BE01892B909194
:10175000BF01892B11F00E94360B86E0FE01319605
:10176000AAEBB1E001900D928A95E1F726960FB6AB
:10177000F894DEBF0FBECDBFDF91CF911F910F91C7
:10178000FF90EF900895209107018AE0289F900133
:1017900011242417350708F0BDCF9F5F9093B8013F
:1017A00002C09F3FD1F7EE2059F00E94E0099FEF61
:1017B0001E140CF491E0899F802D11248093BC01AC
:1017C000FF2059F00E94E0099FEF1F140CF491E0F4
:1017D000899F802D11248093BD013091BC0133235A
:1017E00009F498CF2091BD01222309F493CF45EB52
:1017F0003403C0011124992359F09093BC0145EBA7
:10180000240390011124332339F03093BD0182CF9A
:1018100081E08093BC01F3CF81E08093BD017ACF5A
:10182000209103018AE0289F900111242417350795
:1018300008F085CF9F5F9093B70102C09F3FD1F71B
:10184000002359F00E942A0A9FEF10160CF491E031
:10185000899F802D11248093BE01112359F00E948D
:101860002A0A9FEF11160CF491E0899F802D112414
:101870008093BF013091BE01332309F460CF2091E2
:10188000BF01222309F45BCF45EB3403C0011124CF
:10189000992359F09093BE0145EB24039001112444
:1018A000332339F03093BF014ACF81E08093BE01EA
:1018B000F3CF81E08093BF0142CF86E0EAEBF1E015
:1018C000DF011D928A95E9F71092B8011092B701D5
:1018D0001092B9010895EF92FF920F931F93CF9347
:1018E000DF93EB01E82FD11110C0442321F0F0E089
:1018F000E855FE4FE4916E2F7E2F8E2FDF91CF9112
:101900001F910F91FF90EF9008950D2F10E0282F59
:1019100030E0442329F028553E4FF901249130E06E
:10192000F6E0CF9FC0011124EFEFF0E0BF010E946D
:10193000672AAB018C2F90E0880F991FA5E5A49F23
:10194000B001A59F700D1124861B970B982F990F3E
:10195000980FBF01601B710B629FD001639FB00D98
:10196000729FB00D11248B2F9D9FB0011124672F02
:101970007727EF01C61BD70BBE01629FE001639F73
:10198000D00D729FD00D11247F01E91AF108E09E5D
:10199000B001E19E700DF09E700D1124672F772726
:1019A000E61BF70BE29F8001E39F100DF29F100DE5
:1019B0001124E12F722F4230510599F048F441155E
:1019C000510569F04130510581F0EB2F8D2F07C093
:1019D0004430510569F080F046305105B1F76E2F63
:1019E0008DCFE22F7B2F812FFACFE22F7D2FF7CFE4
:1019F000EB2F822F712FF3CF7B2F822FED2FEFCF85
:101A000041E00C946B0C0C94000DCF93DF93762F78
:101A1000E901682F842F0E94030D798368838A83EC
:101A2000DF91CF9108958091D702982F9E7F39F44E
:101A30008091D702817082608093D70208958430AC
:101A4000B8F7089588E090E00C94B32ACF92DF9223
:101A5000EF92FF926B017C010E94130DB701A6016A
:101A600088E090E0FF90EF90DF90CF900C94D12A27
:101A7000E7EDF2E083E0808311828FEF828383833E
:101A8000148260817181828193810C94260D9091E2
:101A9000DB02933018F49F5F9093DB02882351F0B0
:101AA0006091D7027091D8028091D9029091DA02A8
:101AB0000C94260D089581E00C94470D9091DB0263
:101AC000992319F091509093DB02882351F0609193
:101AD000D7027091D8028091D9029091DA020C94C9
:101AE000260D089581E00C945E0D70E00C945E0F5D
:101AF000609109018091D70280FF0AC0809108019E
:101B000023E0829FC001112484529D4F0C94750DD7
:101B100080910A0190910B0123E0829FF001112432
:101B2000E452FD4F891750F71182108212828F5FA5
:101B30003396F8CFE7EDF2E080818E7F808360817D
:101B40007181828193810E94260D2FEF80E792E0C0
:101B5000215080409040E1F700C000000C94780DC7
:101B60009091D70290FF14C090910A0120910B012F
:101B700033E0939FF0011124E452FD4F921710F0CF
:101B80000C94780D8183608342839F5F3396F6CFF8
:101B90000895EF92FF920F931F93CF93DF9300D09E
:101BA0000F92CDB7DEB7F82E062F142FE22E8091BC
:101BB000D70280FF28C0E82FE695F0E0EE59FE4FEF
:101BC00090819093C1018E7F823059F49E012F5FE6
:101BD0003F4F8F2D0E94050D4B8169818A810E94A4
:101BE000B00DF092D8020093D9021093DA02EE20E1
:101BF00051F06091D7027091D8028091D9029091F2
:101C0000DA020E94260D0F900F900F90DF91CF9176
:101C10001F910F91FF90EF900895E7EDF2E0918111
:101C2000282F4381628188E0890F0C94C90D81E0DF
:101C30000C940D0EE7EDF2E09181282F4381628133
:101C400088EF890F0C94C90D81E00C941A0EE7ED12
:101C5000F2E0628121E1620F08F46FEF282F4381E7
:101C600081810C94C90D81E00C94270EE7EDF2E020
:101C7000628121E1621B08F460E0282F43818181A9
:101C80000C94C90D81E00C94360EE7EDF2E043812F
:101C900021E1420F08F44FEF282F628181810C94DB
:101CA000C90D81E00C94450EE7EDF2E0438121E19E
:101CB000421B08F440E0282F628181810C94C90DF9
:101CC00081E00C94540E20E00C94C90D8091D70251
:101CD00080FF18C0817082608093D702662351F024
:101CE0006091D7027091D8028091D9029091DA0266
:101CF0000E94260D4091DA026091D9028091D802AB
:101D00000C94630E0895682F81E00C94660E81E0B8
:101D10000C94830E682F9091D70296958FEF890FC0
:101D200009F481E00C94660E81E00C948A0E61E067
:101D30000C94660EE7EDF2E08081816080838695E9
:101D40000C94970E8091D70280FD0C949A0D0C9400
:101D50009A0E60E00C94660E8091C00181112CC037
:101D60000E945121811104C00E94F6210E94380D69
:101D70000E94220D6093D7027093D8028093D902FB
:101D80009093DA026E7F61F40E94380D0E94220D5A
:101D90006093D7027093D8028093D9029093DA02AD
:101DA0000E94130D8091D70280FF03C086950E9488
:101DB000A90E81E08093C0010895FA01811101C04C
:101DC000FB0109940F931F93CF938C01FB01C281F8
:101DD000CC2309F471C00E948C2082720A3CFCE57D
:101DE0001F0709F460C048F5063CECE51E0709F43E
:101DF00055C078F4043C9CE5190709F443C008F089
:101E000048C0033C1C45D9F18C2FCF911F910F91F5
:101E1000089542E45EE063E37EE0083C9CE5190738
:101E2000A9F147E15EE064E27EE0093C1C4570F107
:101E300043E35EE062E47EE029C00E3CFCE51F0760
:101E4000B9F1A0F442E75DE06BE57DE00C3CECE528
:101E50001E07E1F041E55EE060E67EE00D3C1C45DA
:101E6000A8F04BE55DE062E77DE010C0073D8CE542
:101E7000180718F00E351D4539F6C0E0C5CF0E9491
:101E8000A20EFBCF44E95EE067E87EE00E94DD0E33
:101E9000F4CF47E85EE064E97EE0F8CF44E25EE03C
:101EA00067E17EE0F3CF40E65EE061E57EE0EECF05
:101EB00081E00E94970EE1CFC1E0A6CF3F9A48B1E2
:101EC0004F7758B15068EFB7F8949B01220F331F3A
:101ED000260F371F280F391F2817390741F4EFBF86
:101EE0008FE594E00197F1F700C000000895DC0150
:101EF0006D91CD0178E058B9000000C067FF48B986
:101F0000660F000000C000C000C048B900C07A954C
:101F100091F7E2CF8098889A8198899A8FB18170E1
:101F2000799905C090E0892B8093C501089592E0CE
:101F3000FACFE091C501EE0FEE0FE093C5014FB16E
:101F4000842F81704FB141FB222720F941FF02C04D
:101F500022E030E0822BE82BE093C501EF70F0E047
:101F6000EC59FE4F80819091C401890F8093C40188
:101F700020E0843054F08091C3018F5F8093C301CF
:101F800060E080E00E94090521E08091C4018D3F5E
:101F900054F48091C30181508093C30161E080E0DB
:101FA0000E94090521E08091C401082E000C990BC4
:101FB00064E070E00E947B2A8093C401822F089520
:101FC000CF92DF92EF92FF920F931F93CF93DF9305
:101FD0006C017B0164E670E088E70E94D514EC0197
:101FE00097FD12C010E000E0F601E00FF11F8491B0
:101FF00064E670E00E943115EC01892B29F40F5F33
:102000001F4F0E151F0581F70E94B415CE01DF91F9
:10201000CF911F910F91FF90EF90DF90CF90089597
:102020000895E4EFF2E080E092E0DF019C011D9270
:1020300021503040E1F7F093F904E093F8048FEF7A
:102040009FEF9093F2018093F10108950E94101088
:102050008093ED0180FD0FC080E88093EC010E9429
:10206000CF146DE070E08FEB92E00E94E00F892BBF
:1020700021F080E0089580E2F0CF8091ED0163E0EF
:1020800070E081FD26C08CEB92E00E94E00F892B6E
:1020900081F76DE070E08CEA92E00E94E00F892BFE
:1020A00041F70E944823605A75418F4F9F4F6093BC
:1020B000F4047093F5048093F6049093F7040E945F
:1020C000111081E08093F0018093EF011092EE01F6
:1020D000089589EB92E0D9CF2091EC0136E0839FFF
:1020E000C0011124629F800D911D1124811522E0F1
:1020F000920714F090E080E08C509D4F9093F9048B
:102100008093F80408952091F8043091F9042E5E2C
:1021100032404091EC01642F70E0C9010E94672AAF
:10212000481B463010F4240F311D211582E038077A
:1021300010F030E020E02C503D4F3093F904209314
:10214000F80408951F93CF93DF93162F8A3031F44C
:1021500081E0DF91CF911F910C941C118D3011F40F
:1021600080E0F7CFC091F804D091F90496E0FE0129
:10217000A6ECB1E001900D929A95E1F7803EC8F08F
:1021800086E0FE0111928A95E9F711111EC0C091F7
:10219000F804D091F90446E050E0BE0186EC91E0ED
:1021A0000E949E2A892BF9F4DF91CF911F910C9404
:1021B0008310F6E08F9FB001112464537D4F46E0F9
:1021C00050E0CE010E94952AE0CFE091F804F09112
:1021D000F9049F012A5F3F4F2E173F07C1F280810C
:1021E00080958193F9CFC45FD240CE0125E09695CA
:1021F00087952A95E1F721E030E0A90102C0440F5C
:10220000551F8A95E2F7CA014091F1015091F20100
:10221000842B952B259645E0D695C7954A95E1F7F1
:1022200002C0220F331FCA95E2F7822B932B9093A3
:10223000F2018093F101B8CFCF93382FE091F804E9
:10224000F091F904E45FF2402091EC01622F70E01C
:10225000CF010E94672A281B822F332369F066E092
:102260000E945B2AC82FC15010F4CF91089560E0FE
:1022700080E20E94A210F7CF9F01280F311D211587
:10228000324018F080E0F0E0E0E08E0F9F2F911DCB
:102290008C509D4F9093F9048093F804E6CF1F93E0
:1022A000CF93DF93EC01162FFE018491811104C0BE
:1022B000DF91CF911F910895612F0E94A210219666
:1022C000F3CF8091F001811103C08091EF01089557
:1022D0000E944823605A75418F4F9F4F6093F404CA
:1022E0007093F5048093F6049093F7048091EF01C6
:1022F0008111EBCF62E070E08AEA92E00E94E00F89
:10230000892B19F781E08093EF01DFCF2F923F9265
:102310005F926F927F928F929F92AF92BF92CF9275
:10232000DF92EF92FF920F931F93CF93DF938091F1
:10233000F001882369F02091F1013091F20121151B
:10234000310531F08091EE0161E070E0882399F071
:10235000DF91CF911F910F91FF90EF90DF90CF9081
:10236000BF90AF909F908F907F906F905F903F90C5
:102370002F9008958F5F082F10E01B01082E02C0D8
:10238000220C331C0A94E2F7A90142215321452B68
:1023900089F39091ED0190FD44C08295880F80767D
:1023A00080930F01980136952795369527952093B0
:1023B0001201815E809310011092130124E630E037
:1023C00047E050E06DE071E088E70E946015892BDE
:1023D00009F0BECFA80125E0440F551F2A95E1F76B
:1023E0008091ED0180FD2BC04C505D4F04E610E064
:1023F00020E230E060E488E70E948715892B09F02D
:10240000A7CF0E946111E101C095D0958091F101A3
:102410009091F201C823D923D093F201C093F10126
:1024200097CF880F880F880F80930F0110921201A9
:10243000895F8093100183E080931301BFCFECECA0
:10244000F1E080E2DF011D928A95E9F7A8E7B1E0AB
:1024500004E711E08CE7C82E81E0D82E97E0592ED2
:10246000772473948D91E80129918E01240F352FE3
:10247000311D2C503D4FE82FF0E0E453FE4F90E02B
:1024800080E0652C681A872C082E01C0880C0A94FD
:10249000EAF77901A12CE701B9907E01B820662DF9
:1024A0006A196770962E062E000C770BDB2D01C083
:1024B000DD0F9A94EAF77195619571096770772736
:1024C00001C0B6946A95EAF7BD2A6081962E9B28D2
:1024D0009082A39468E0A612DECF019631968830F0
:1024E000910579F6CA16DB0609F0BCCF04E610E0C8
:1024F00020E230E04CEC51E07DCF8091EF019091F3
:10250000F001911103C091E089270895882369F0B3
:1025100062E070E088EA92E00E94E00F892B19F0F7
:102520008091EF0108951092EF018091EF01EBCFC0
:102530000F931F938091F001882319F160E080E0F0
:102540000E946C100E9424050E9486118091EF0168
:102550008823B9F00E9448230091F4041091F504F7
:102560002091F6043091F704601B710B820B930BE2
:102570006F3F7F4F8F4F9F4720F41F910F910C9417
:102580007D121F910F9108950F931F93CF93DF93A7
:10259000C42FD22FFC0182818823C9F04093F5011A
:1025A0000E943C239093F4018093F30180E28C0F0E
:1025B000883008F050C0C77081E001C0880FCA950C
:1025C000EAF7DF91CF911F910F910C94731810913E
:1025D000F501141335C08091F3019091F4010E942C
:1025E0005423883C910560F5C0E2CD0F1D17B9F06A
:1025F00080E2810F883040F4177081E001C0880FBD
:102600001A95EAF70E947A18C83048F481E09D2FA5
:10261000977001C0880F9A95EAF70E947318802F6F
:102620000E946B18C830B8F4D77081E001C0880FE1
:10263000DA95EAF7DF91CF911F910F910C947A18F8
:1026400080E28C0F883038F4C77081E001C0880FB9
:10265000CA95EAF7EFCFDF91CF911F910F910895BF
:102660000F939C01CB01243F4CE5340759F1A8F4AA
:10267000293DFCE53F0701F12A3D4CE53407D1F146
:10268000283D3C4591F406E221EE41EE68ED7CE503
:102690000E94C41280E00F910895263FFCE53F0799
:1026A000E9F0B0F0273F3C45F9F0FC018281882336
:1026B00039F11092F501EFCF07E225EE45EE69ED15
:1026C0007CE5E6CF06E221EE40EE64EF7CE5E0CF6C
:1026D00007E225EE44EE65EF7CE5DACF06E221EE77
:1026E00042EE66EF7CE5D4CF07E225EE46EE67EFDB
:1026F0007CE5CECF08E221E045EE6AED7CE5C8CF6F
:1027000081E0C9CFCF93DF93EC01FB018281882365
:1027100009F419C1C230FCE5DF07C0F1C6319CE500
:10272000D90730F09E012B5F3C452930310570F50B
:102730000E9464219093C2028093C102C031ECE5F3
:10274000DE0709F4CFC008F05BC0C8308CE5D807BD
:1027500009F4B6C088F5C430ECE5DE0709F4A8C07A
:10276000C0F4C2308CE5D80709F49CC08091C10246
:102770008260C330DC4509F498C08091C102909119
:10278000C2020E9472210E94EC1A80E0DF91CF9178
:1027900008958091C1028061C630ECE5DE0709F43E
:1027A00084C08091C1028860C730DC4508F47DC0D8
:1027B0008091C102806279C0CC308CE5D80709F4E1
:1027C00089C070F48091C1028C60CA30ECE5DE07EC
:1027D00009F46BC008F478C08091C1028E7F65C097
:1027E000CE308CE5D80709F479C08091C1028B7F87
:1027F000CF30DC4508F459C08091C1028F7E55C0AE
:10280000CC3FECE5DE0709F457C030F5C3318CE569
:10281000D80709F46FC078F4C131ECE5DE0709F49C
:1028200065C0C231DC4509F0A8CF0E94EC1A809146
:10283000C1028F773AC0C5318CE5D80709F462C070
:1028400008F476C08091C2028160CB3FDC4509F07C
:1028500094CF8093C20291CFC115FDE5DF0709F443
:102860004DC088F48091C2028D7FCE3F9CE5D90790
:1028700081F38091C2028E7FCF3FDC4550F380917F
:10288000C2028360E6CFC230FDE5DF0709F459C01C
:1028900008F444C080E0C330DD4509F06ECF0E94EB
:1028A000F8216BCF8091C10281608093C10265CF16
:1028B0008091C1028460F9CF8091C2028260C9CF49
:1028C0008091C1028064F1CF0E94EC1A8091C10214
:1028D0008068EBCF8091C1028D7FE7CF8091C102EC
:1028E000877FE3CF8091C1028F7DDFCF8091C102CE
:1028F0008F7BDBCF8091C102837FD7CF8091C202D3
:102900008C7FA7CF8091C10282FB992790F921E0AB
:10291000922790FB82F990FB83F9C7CF8091C20286
:10292000982F909591708E7F892B90FB81F991CF94
:102930000E94EC1A9091C102892F97FB87F9805869
:10294000B4CF81E0ACCF81E021CFCF93DF93EB0117
:1029500086319C4511F50E948C209A81992399F02B
:102960008A7A91E009F490E09093F601811109C010
:1029700089E20E9446200E94DC2080E0DF91CF9116
:10298000089585E3F6CF8091F601811104C089E2B4
:102990000E944D20F0CF85E3FBCF81E0EFCF109276
:1029A000B9008CE08093B8000895EF92FF920F93E6
:1029B0001F93CF93DF93182FEB011092BC0084EA92
:1029C0008093BC000E943C237C018091BC0087FF67
:1029D00027C08091B900887F883029F08091B900A4
:1029E000887F8031D9F51093BB0084E88093BC00C8
:1029F0000E943C238C018091BC0087FF24C0209161
:102A0000B900287F90E080E02831B1F081E090E0CB
:102A1000203411F490E080E09195819591090CC0EB
:102A2000CF3FDC0791F20E943C238E199F098C173F
:102A30009D0758F28EEF9FEFDF91CF911F910F917D
:102A4000FF90EF900895CF3FDC07A9F20E943C234E
:102A5000801B910B8C179D0770F2ECCF8FEF9FEFCF
:102A6000EBCF0F931F93CF93DF93EB018093BB00CA
:102A700084E88093BC000E943C238C018091BC00C0
:102A800087FF11C02091B900287F81E090E02832B3
:102A900011F490E080E0919581959109DF91CF91BB
:102AA0001F910F910895CF3FDC0741F30E943C2313
:102AB000801B910B8C179D0708F38EEF9FEFEECFD5
:102AC000CF92DF92EF92FF920F931F93CF93DF93FA
:102AD0006B018A017901B9010E94D514E6010C0D40
:102AE0001D1DC017D10761F424E92093BC00DF91BC
:102AF000CF911F910F91FF90EF90DF90CF900895AD
:102B000097FDF2CFB70189910E943115EACFCF929C
:102B1000DF92EF92FF920F931F93CF93DF93C62F15
:102B20006A017901B8010E94D51497FD0CC0B80163
:102B30008C2F0E943115E601EC0CFD1CCE15DF0533
:102B400011F097FF0CC024E92093BC00DF91CF91D6
:102B50001F910F91FF90EF90DF90CF900895B801F3
:102B600089910E943115EACF84E98093BC000895D1
:102B70009093FC018093FB010895E091FB01F0919B
:102B8000FC01309721F00190F081E02D099480E064
:102B90000895E091FB01F091FC01309799F02091AC
:102BA0002001222359F02091C10227FF07C0DC0138
:102BB0002C9111962C93119725E02C930280F38190
:102BC000E02D09940895E091FB01F091FC0130970C
:102BD00039F022E0DC012C930480F581E02D09948A
:102BE00008952091F9013091FA012817390771F001
:102BF0009093FA018093F901E091FB01F091FC01BF
:102C0000309721F00680F781E02D099408952091F6
:102C1000F7013091F8012817390771F09093F80106
:102C20008093F701E091FB01F091FC01309721F0D6
:102C30000084F185E02D099408950E944823609353
:102C4000100270931102809312029093130260930A
:102C50000C0270930D0280930E0290930F02089560
:102C60000E94482360931002709311028093120215
:102C700090931302609308027093090280930A02F2
:102C800090930B02089585B7806885BF85B78068EB
:102C900085BF0895089508950C944A1608950C94DC
:102CA0004E160E94431689E491E20E9498230E94E6
:102CB0004B160C944C1681E008950C945B16089505
:102CC00008950E945F160C9460160E9433230E94A0
:102CD000D80880E00E9426100E94AC0E0E948A0F45
:102CE0000C944F167F928F929F92AF92BF92CF9289
:102CF000DF92EF92FF920F931F93CF93DF93CDB7A5
:102D0000DEB72A970FB6F894DEBF0FBECDBF0E9484
:102D10002609A82E81110E941D165EEF852E51E016
:102D2000952E10E000E0702E802F0E94AF086C01FD
:102D3000F401E190F1904F01E816F90609F46AC038
:102D400080919D0281FD0E94B808C7018C259D25B8
:102D5000B12CEE24E394F12C9C012E213F21232B56
:102D600009F452C00E945D168823A9F0BE827F82BA
:102D7000CE20DF2081E0CD2809F480E088870E9402
:102D80003C238160782F9A8789874E815F8168858F
:102D90008A850E943517000F111FF801E250FE4F7F
:102DA00080819181E826F926F182E0820E94990FC4
:102DB000182F81110E9430160E949812A11001C094
:102DC00011110E9461110E94510B0E94BD1590913A
:102DD000FD018917B1F10E94BD158093FD012A966E
:102DE0000FB6F894DEBF0FBECDBFDF91CF911F911C
:102DF0000F91FF90EF90DF90CF90BF90AF909F909A
:102E00008F907F900C945606B394EE0CFF1CFBE061
:102E1000BF12A2CF0F5F1F4F0530110509F083CFFE
:102E20008FEF89838A831B820E943C238160782FE5
:102E30009D838C8349815A816B818D810E943517D6
:102E4000B5CF2A960FB6F894DEBF0FBECDBFDF9187
:102E5000CF911F910F91FF90EF90DF90CF90BF9097
:102E6000AF909F908F907F900895DF92EF92FF92A6
:102E70000F931F93CF93DF93CDB7DEB72B970FB68A
:102E8000F894DEBF0FBECDBF7A878B87F42E052F57
:102E9000162FE72ED82E61110E94AC201E821D82B3
:102EA0007E2DEC82DD824F2D502F612F8D2D9E8146
:102EB0002B960FB6F894DEBF0FBECDBFDF91CF913A
:102EC0001F910F91FF90EF90DF900C94621DFC0119
:102ED000808191810C941820CF93C82F882309F406
:102EE0008BC08238C1F40E94BD1581FD85C089E385
:102EF0000E9446200E94DC202FEF81EE94E02150BA
:102F000080409040E1F700C0000089E30E944D201E
:102F1000CF910C94DC208338A1F40E94BD1580FD74
:102F20006BC083E50E9446200E94DC202FEF81EEDB
:102F300094E0215080409040E1F700C0000083E51C
:102F4000E5CF8438A1F40E94BD1582FD55C087E409
:102F50000E9446200E94DC202FEF81EE94E0215059
:102F600080409040E1F700C0000087E4CFCF8CEFB5
:102F70008C0F813A90F46C2F80911401909115017F
:102F80000E941122882329F08C2F0E944D200E943C
:102F9000DC208C2F0E944620BBCF80E28C0F883033
:102FA00048F4C77081E001C0880FCA95EAF70E9413
:102FB0008F20AECFEBE5EC0FE33040F4F0E0E655C8
:102FC000FE4F808190E0CF910C94F115E8E5EC0F75
:102FD000E73150F4F0E0EE0FFF1FE458FE4F808120
:102FE0009181CF910C940716CD3E30F08C2F0E942A
:102FF000630ACF910C94360BCF910895882309F47E
:1030000052C0823871F40E94BD1581FF4CC089E323
:103010000E9446200E94DC2089E30E944D200C94EF
:10302000DC20833859F40E94BD1580FF3CC083E545
:103030000E9446200E94DC2083E5EFCF843859F4BB
:103040000E94BD1582FF2FC087E40E9446200E9487
:10305000DC2087E4E2CF9CEF980F913AF0F290E207
:10306000980F983050F4877091E001C0990F8A95BD
:10307000EAF7892F0E949520D2CF9BE5980F9330D5
:1030800020F490E080E00C94F11598E5980F9731CA
:1030900020F490E080E00C9407168D3E20F00E9412
:1030A000BD0A0C94360B08951F93CF93DF93182F0E
:1030B000EB010E946C17209731F4812FDF91CF91A3
:1030C0001F910C94FE178FE99FE00197F1F700C064
:1030D00000002197F0CF70E060E0893311F460E5E3
:1030E00070E00C945418882321F00E948F200C94D7
:1030F000DC200895882321F00E9495200C94DC2088
:103100000895BF92CF92DF92EF92FF920F931F9399
:10311000CF93DF936C01D62FC72FFC01128105815D
:1031200002950F700E946420E82E8823A1F0E12E02
:10313000112389F08C2F807F803429F080E28D0F5D
:10314000E12C883040F082E00E942D210E94642012
:1031500091E0E82EE926BC2EB2949FE0B922EB2D37
:10316000F0E0EB50F54D0C948F2A0C2F0F70C07FC0
:1031700011F00295007F1123A9F0002359F080E29D
:103180008D0F883010F0D11109C0802F0E948F2040
:103190000E94DC208D2F0E946C1714C0802F0E948B
:1031A0009F20F6CF8D2F0E94FE17002359F080E25A
:1031B0008D0F883010F0D1112CC0802F0E949520E7
:1031C0000E94DC202B2D2850330B2430310520F4B5
:1031D0000E94BD150E945606EE2009F49EC10E9471
:1031E000602080FD9AC1F60112820E945A200E943E
:1031F000E61EC6010E94AE1A0E945A20DF91CF91AE
:103200001F910F91FF90EF90DF90CF90BF900C94A3
:10321000071F802F0E94A520D3CFFC2FFF70FF2E09
:10322000C07FC03219F0F29480EFF822DD2369F0FC
:10323000D13049F1112391F1002351F1F60185813B
:1032400080FFA8CF8F70858323C0112381F00111E7
:1032500006C00E94BF208F290E947318B3CF01308F
:10326000C1F70E94BF208F290E94C520ABCF01115A
:1032700006C00E94D2208F2D0E947A18A3CF013061
:1032800009F4A0CFF6CF112329F0063008F09ACF29
:103290008F2DE2CF053008F095CFEDCF002359F305
:1032A000D93349F4FFEF27EE33E0F15020403040AE
:1032B000E1F700C000008D2F0E94FE1783CF8C2FF6
:1032C00086958695837069F0813009F07BCF8D2FCC
:1032D0009C2F9370111102C090E080E00E940716AD
:1032E00071CF8D2F9C2F9370111102C090E080E060
:1032F0000E94F11567CF8D2F112329F00E94630AD8
:103300000E94360B5FCF0E94BD0AFACF8C2F8370CC
:1033100009F041C0111156CF4D2F42954695477087
:10332000440F440F0D2F0F7010E030E020E0042E0A
:1033300004C0000F111F221F331F0A94D2F760E050
:1033400070E0CB01D4FF0FC06FE070E080E090E050
:1033500004C0660F771F881F991F4A95D2F76095A2
:10336000709580959095C695C695C370602B712B0E
:10337000822B932BC23049F058F4C13019F00E94CF
:10338000981E20CF0E94861E1DCF0E94AA1E1ACF13
:103390000E94841E17CF8695112311F08C2F817007
:1033A000882309F40FCF4D2F429546954770440F5F
:1033B000440F0D2F0F7010E030E020E0042E04C009
:1033C000000F111F221F331F0A94D2F760E070E034
:1033D000CB01D4FF0FC06FE070E080E090E004C04C
:1033E000660F771F881F991F4A95D2F760957095D1
:1033F00080959095C695C695C370602B712B822BD6
:10340000932BC23049F058F4C13019F00E945D1F6F
:10341000D9CE0E944B1FD6CE0E946F1FD3CE0E94E2
:10342000C01ED0CECF70112329F08C2F0E94E61E33
:103430008D2F12CF8D2F0E947A188C2F0E94071F7C
:10344000C1CED23F89F160F4D03FC9F0D13F29F11C
:10345000112309F442C001119DCE8C2F8F7121C020
:10346000D33F39F1D43FA1F7112369F1CF718C2FEC
:103470000E94E61E63E08C2F0E941221A3CE11232E
:1034800041F0053008F09ECE8C2F8F710E942A1FCC
:1034900099CE063008F096CEF7CF8C2F8F7111237E
:1034A00069F20E94E61E8ECE8C2F8F711123C9F314
:1034B000C5CF112329F08C2F8F710E94D11E82CE8F
:1034C0000E94CC1E7FCE81E00E942D21023008F4A4
:1034D00079CE82E00E942D2175CE002359F0D93398
:1034E00009F0E9CE8FEF97EEE3E081509040E040A5
:1034F000E1F7DFCE8C2F8F71A1CF4C2F4F706D2F46
:10350000C6010E945E060E94FC1D5CCE4C2F4F70CF
:103510006D2FC6010E94610655CEDF91CF911F919C
:103520000F91FF90EF90DF90CF90BF9008950F9391
:103530001F93CF93DF93EC01688179818A810E9488
:1035400022208C010E94811F0E94831EB801CE019F
:10355000DF91CF911F910F910C948118CF93DF933E
:10356000EC018B819C81892B29F0888199818923A9
:103570008F3F59F4DF91CF910895CE010E94971AA1
:10358000CE01DF91CF910C948905CE010E94AA054E
:103590008111F3CF0E946420882361F38A818823FC
:1035A00049F382E0DF91CF910C942D2190E080E0EF
:1035B0000E94F11590E080E00E9407160E94AC2066
:1035C0000E94BC200E94DC200E945D0C0C94360BF3
:1035D0000E9454200C94D61A0E949C200C94E81A45
:1035E000E92FE295EF70E250EE3070F4F0E0EB5F1F
:1035F000F44D0C948F2A803F19F020F4883E20F47B
:1036000081E00895843FE1F380E00895883EC0F3AF
:10361000813FD1F7F5CF93FB882780F908950E9469
:1036200018200C94F01ACF93DF9300D000D00F92A3
:10363000CDB7DEB70F900F900F900F900F90DF91E6
:10364000CF910895CF93DF9300D000D000D0CDB7B5
:10365000DEB726960FB6F894DEBF0FBECDBFDF9162
:10366000CF9108951F93CF93DF93C091150216E079
:10367000809116028C1304C0DF91CF911F910895A1
:10368000D0E01C9FF0011D9FF00D1124E95EFD4F5D
:103690004081518162817381848195810E94221BC6
:1036A0002196C770E5CF4091470250914802609142
:1036B000490270914A0280914B0290914C020C9405
:1036C000221B1F93CF93DF9380914C02807FA9F43C
:1036D00080914902882389F080911502C0911602D9
:1036E0006091470270914802A0914A02B0914B024A
:1036F000D62FD72316E0C81304C0DF91CF911F91B6
:10370000089590E0109711F0DF3F19F4019687704B
:10371000F2CF189F9001199F300D1124F901E95E35
:10372000FD4F41814713F2CF40814613EFCF4281D5
:103730004111ECCF438154814A1B5B0B483C51053E
:1037400028F780914C028F70806180934C02F901C0
:10375000E45EFD4F80818F708061808387E492E01A
:103760000E94AE1ADF91CF911F910C94321BAF9241
:10377000BF92CF92DF92EF92FF920F931F93CF935E
:10378000DF93CDB7DEB761970FB6F894DEBF0FBEFB
:10379000CDBF8C0185E0F801DE011D9601900D92F0
:1037A0008A95E1F7F80140815181E28087E4C82ED3
:1037B00082E0D82E60914A0270914B02611571052A
:1037C00009F461C19091470220914802892F822318
:1037D0008F3F09F458C1A380B480F0904902F501ED
:1037E000E61BF70BFF2009F4FCC080914C02382F38
:1037F000307FE83CF10508F0B2C0311179C0FE2CF1
:10380000251323C0941321C0E1101FC08F70806165
:1038100080934C020E94531BC6010E94AE1A8091F5
:103820004C02F80185838F2D61960FB6F894DEBFA8
:103830000FBECDBFDF91CF911F910F91FF90EF9001
:10384000DF90CF90BF90AF900895AB2829F0842FE0
:1038500085238F3F09F033C180E0F82FF170DF2E10
:1038600080FF3CC0809115022091160236E0821341
:1038700015C04D875E878D859E850E941820292F53
:1038800022952F702230F0F0243018F59F70F1F05F
:10389000F8019581907FD1F4D12C1EC090E0389F23
:1038A000F001399FF00D1124E95EFD4F6181651330
:1038B00006C06081641303C062816E110FC001965F
:1038C0008770D5CF9F7011F0882331F3805E8830E8
:1038D00018F3C8010E94AE1AFD2CA5CFEE2009F402
:1038E000A2CF80914C02816080934C02F12C9BCF3F
:1038F000251306C0941304C0F801EE2009F48DC00E
:103900004D875E878D859E850E940F1B882319F148
:10391000EE2009F180914C02803270F02091470234
:103920003091480238872F831986BB86AA868C87F8
:10393000CE0107960E94AE1A86E0F801A7E4B2E035
:1039400001900D928A95E1F70E94611B0E94531B22
:10395000FF24F39468CFC8010E94AE1AF9CF311149
:1039600013C07A2DB98AA88A6E2D89890E94131BEB
:1039700087E492E00E94AE1A86E0F60111928A95E1
:10398000E9F70E94531BB2CF25130FC094130DC04B
:10399000E1100BC0F8018583C8010E94AE1A86E0D1
:1039A000F60111928A95E9F73ECF4D875E878D85A6
:1039B0009E850E940F1B882371F2EE2061F2809198
:1039C0004C02803208F4B8CF20914702309148026F
:1039D0003A8329831B82BD82AC828E83CE010196FD
:1039E000A9CFE83CF10508F041C0FE2CEE2009F417
:1039F000B2CF25132AC0941328C080914C0280FDB9
:103A00001BC0982F907FC1F0F8018583903F31F063
:103A1000982F907F905F8F70892B8583C8010E94BB
:103A2000AE1A86E0F801A7E4B2E001900D928A9503
:103A3000E1F70E94531BF7CE86E0F801A7E4B2E05D
:103A400001900D928A95E1F7EECE4D875E878D85C8
:103A50009E850E940F1B81116FCF80914C02816067
:103A600080934C02C8010E94AE1ADDCE7A2DB98A2D
:103A7000A88A6E2D89890E94131B86E0F601119297
:103A80008A95E9F7D6CFEE2009F465CF4D875E879A
:103A90008D859E850E940F1BF82E882309F45BCF2D
:103AA00086E0F801A7E4B2E001900D928A95E1F773
:103AB00087E492E00E9467170E94611BBACF81E001
:103AC0008E25CBCE1F93CF93DF93CDB7DEB72C9748
:103AD0000FB6F894DEBF0FBECDBF4F8358876987FE
:103AE0007A878B879C87CE0107960E94B71B882315
:103AF00069F08A859B85892B39F04F815885842F01
:103B000085238F3F09F071C016E05FC086E0FE019B
:103B10003796DE01119601900D928A95E1F78A851C
:103B20009B85892B89F38F81988589238F3F61F34A
:103B30002091160230E0C9010196877099274091C3
:103B400015024817190671F40E94EC1A1092160219
:103B50001092150286E0E7E4F2E0DF011D928A95FB
:103B6000E9F7D2CF96E0929FD001939FB00D112438
:103B7000A95EBD4FFE01319601900D929A95E1F735
:103B8000809316020E94321BBFCF819FC001112477
:103B9000895E9D4F0E94B71B8823E9F0E0911502D2
:103BA0001E9FF0011124E95EFD4F40815181628129
:103BB0007381848195810E94221B8091150290E07F
:103BC0000196877099278093150280911502909134
:103BD00016028913DACF2C960FB6F894DEBF0FBE0B
:103BE000CDBFDF91CF911F91089569857A858B852F
:103BF0009C850E94221B88CFEF92FF920F931F9308
:103C0000CF93DF938C01892B81F0F12CEE24E39488
:103C1000E8012196F8018491843770F4843008F02B
:103C20005FC08130B1F08230A1F1DF91CF911F915F
:103C30000F91FF90EF900895853709F44CC008F478
:103C40003DC09CE7980F903780F78F770E94FE1752
:103C500049C00E5F1F4FFE01849190E2980F98308B
:103C600060F48770FE2D01C0FF0F8A95EAF78F2F51
:103C70000E94AF200E94DC2002C00E946C178F2D92
:103C8000815030F2EFE9FFE03197F1F700C000001A
:103C9000F7CF0E5F1F4FFE01849190E2980F98308E
:103CA00050F48770FE2D01C0FF0F8A95EAF78F2F21
:103CB0000E94B520DFCF0E94FE17E1CF0E5F1F4F9D
:103CC000FE01C491C150D8F28FE99FE00197F1F74E
:103CD00000C00000F7CF0E5F1F4FFE01F490CFCF62
:103CE0000E946C178E01CBCF08950C94741E0E9415
:103CF000751E6093740270937502809376029093A0
:103D000077020C94D61A08950C94771E0F931F9384
:103D10000091740210917502209176023091770221
:103D2000602B712B822B932B1F910F910C94771E7C
:103D30000F931F93009174021091750220917602E7
:103D40003091770260237123822393231F910F9177
:103D50000C94771E0F931F930091740210917502BB
:103D6000209176023091770260277127822793276E
:103D70001F910F910C94771E0C94741E0C94BC1E12
:103D80000E94BE1E60937002709371028093720253
:103D9000909373020C94D61A60E070E0CB010C94FF
:103DA000C01E0F931F9341E050E060E070E08A0175
:103DB0009B0104C0000F111F221F331F8A95D2F7E9
:103DC000C901B8011F910F910C94C01E0F931F934E
:103DD00041E050E060E070E004C0440F551F661FF2
:103DE000771F8A95D2F78091700290917102A0910D
:103DF0007202B09173028A019B01082B192B2A2BA6
:103E00003B2BC901B8011F910F910C94C01E0F9359
:103E10001F9341E050E060E070E004C0440F551F84
:103E2000661F771F8A95D2F7CB01BA01609570950E
:103E3000809590950091700210917102209172020C
:103E40003091730260237123822393231F910F917A
:103E50000C94C01E0F931F9341E050E060E070E0AF
:103E600004C0440F551F661F771F8A95D2F78091B3
:103E7000700290917102A0917202B09173028A0156
:103E80009B01082719272A273B27C901B8011F9141
:103E90000F910C94C01E0F931F930091700210910C
:103EA00071022091720230917302602B712B822B70
:103EB000932B1F910F910C94C01E0F931F93009191
:103EC000700210917102209172023091730260238E
:103ED0007123822393231F910F910C94C01E0F9383
:103EE0001F93009170021091710220917202309123
:103EF000730260277127822793271F910F910C94DB
:103F0000C01E08952BE0929F800D1124982F97706A
:103F100041E001C0440F9A95EAF78695869586950B
:103F200095E0899FF0011124E35BFD4F90E080E074
:103F300070E05191DF0111979B01082E02C0369568
:103F400027950A94E2F72170219525272423252718
:103F50002C9301968530910561F708952BE0929F8F
:103F6000800D1124982F977086958695869525E06B
:103F7000829FF0011124E35BFD4F50E040E080E0C0
:103F8000219130E0092E02C0369527950A94E2F778
:103F900021703327042E01C0220F0A94EAF7822BE6
:103FA0004F5F5F4F4530510559F70895BF92CF924B
:103FB000DF92EF92FF920F931F93CF93DF938C01C9
:103FC000C0907002D0907102E0907202F090730283
:103FD0008091740290917502A0917602B09177025F
:103FE000C82AD92AEA2AFB2ACFE1D0E0BC2ED70181
:103FF000C6010C2E04C0B695A795979587950A948F
:10400000D2F780FD0EC0219788F7B12C8B2DDF9160
:10401000CF911F910F91FF90EF90DF90CF90BF90C5
:104020000895B8018C2F0E947E06019761F3EECFB0
:10403000CF93DF93EC010E94D61FBE01DF91CF9199
:104040000C947E061F93CF93DF93EB0190911402A3
:10405000992331F0CB01DF91CF911F910C9418205F
:10406000882379F0CB010E94D61F182F682FCE012C
:104070000E94821FBE01812FDF91CF911F910C946E
:104080007E06CB010E94AE1F182FF4CF682F8091BF
:104090001401909115010C949122682F80911401C4
:1040A000909115010C949C2280911401909115011E
:1040B0000C94A72280917802859585958595089521
:1040C000809178028770089590917802977081E0CE
:1040D00009F480E008959091C20292FB222720F912
:1040E000281751F080FB92F99093C2028091C1028F
:1040F0009091C2020C94722108958091C20282FBB9
:10410000882780F991E089270C946B2081E00C943A
:104110006B2080E00C946B2080919C02089590911C
:104120009C02892B80939C020895809590919C021B
:10413000982390939C02089510929C020895909168
:104140009B02892B80939B020895809590919B02FE
:10415000982390939B02089510929B02089590914A
:104160009A02892B80939A020895809590919A02E1
:10417000982390939A02089510929A02089580913C
:104180007902089508950C94C2209091C20292FD84
:1041900008C090917902981721F0809379020C94CD
:1041A000C320089580917902882329F01092790222
:1041B00080E00C94C3200895E0911401F091150162
:1041C00080919C028083E0911401F091150180811F
:1041D00090919B02892B8083E0911401F09115014D
:1041E000808190919A02892B808390917902992302
:1041F00081F0E0911401F09115018081892B808379
:1042000080911401909115010E94FD2181110E945D
:10421000D22080911401909115010C94C915089534
:104220000C940F219091C20292FD10C098E0899FDA
:1042300090011124622B609378020E94E61E809107
:1042400078028595859585950C9410210C94E61E31
:104250001092780280E00C94102190917802809561
:10426000892380937802282F277039F4282F082E6D
:10427000000C330B9217130621F49091C20292FFA7
:1042800007C08595859585950E94071F0C94282168
:10429000089580E008956FEF7FEF90E080E00C9448
:1042A000DD2A90E080E00E94B92A21E08A3E9E4FFC
:1042B00009F020E0822F089582E090E00C94AB2A70
:1042C00083E090E00C94AB2ACF9384E090E00E94CE
:1042D000AB2AC82F82E290E00E94AB2A982F8C2F45
:1042E000CF910895CF93C92F682F84E090E00E946A
:1042F000BF2A6C2F82E290E0CF910C94BF2AAB01D1
:10430000BC018FE090E00C94D12AAB01BC0183E1A9
:1043100090E00C94D12A60E070E0CB010C948521F0
:1043200060E070E0CB010E947F210C948B216AEE4B
:104330007EEF90E080E00E94DD2A60E082E090E085
:104340000E94BF2A60E083E090E00E94BF2A1092A2
:10435000740210927502109276021092770260E059
:1043600084E090E00E94BF2A60E082E290E00E9438
:10437000BF2A60E085E090E00E94BF2A60E086E00E
:1043800090E00E94BF2A6FEF87E090E00E94BF2A72
:1043900040E050E0BA0188E090E00E94D12A60E05D
:1043A0008DE090E00E94BF2A40E050E0BA0188E131
:1043B00090E00E94D12A60E087E190E00E94BF2A4D
:1043C00040E050E0BA018CE190E00E94D12A70E018
:1043D00060E080E290E00E94DD2A40E050E0BA0117
:1043E00088E190E00E94D12A0C9490210C949721AE
:1043F000682F8EE090E00C94BF2AFC0132968091E9
:104400002001882321F08091C1029EE187FF96E080
:1044100080E0915008F4089521912223D1F38F5F19
:10442000F8CF662301F1209120012223F1F02091A1
:10443000C10227FF1AC0462F4695469546954E3134
:1044400090F4677021E030E002C0220F331F6A95BC
:10445000E2F7840F911DFC01828190E0282339232B
:1044600081E0232B69F480E00895FC0132960896E0
:104470002191261721F0E817F907D1F7F4CF81E051
:1044800008959C01FC0132969FEF80E04191461710
:1044900051F09F3F19F4411101C0982F8F5F863072
:1044A000A9F79F3F09F40895290F311D97FD3A950B
:1044B000F90162830895FC01329608962191261332
:1044C00003C0DF0111971C92E817F907B9F70895A7
:1044D000E62FE695E695E695EE3168F4E80FF92FBC
:1044E000F11D677021E030E001C0220F6A95EAF704
:1044F0008281822B82830895E62FE695E695E695E4
:10450000EE3170F4E80FF92FF11D677021E030E013
:1045100001C0220F6A95EAF7209582812823228321
:10452000089520912001222329F02091C10227FD26
:104530000C9468220C94412220912001222329F01E
:104540002091C10227FD0C947C220C945B22FC017B
:10455000329680912001882351F08091C10287FF1B
:1045600006C08EE1DF011D928A95E9F7089586E085
:10457000F9CF089508950C94BA22809102058430F1
:1045800049F10E94BB2280E00E94560610929E02D2
:1045900088E190E020E40FB6F894A895809360003D
:1045A0000FBE2093600083B7817F846083BF83B791
:1045B000816083BF7894889583B78E7F83BF0FB661
:1045C000F894A895809160008861809360001092B3
:1045D00060000FBE08950895CF930E94B9220E94F3
:1045E00026090E94EB22C0E08C2F0E94AF08892B85
:1045F00031F4CF5FC530C1F780E0CF91089581E0FD
:10460000FCCF08950C9401230E94EC1A0E94BD1562
:104610000E9456060C9402231F921FB61F9211246B
:104620008F939F93AF93BF9380919E02811113C08C
:104630008091FA049091FB04A091FC04B091FD04D8
:104640004196A11DB11D8093FA049093FB04A093A1
:10465000FC04B093FD04BF91AF919F918F911F9087
:104660001FBE1F90189582E084BD93E095BD9AEF20
:1046700097BD80936E0008952FB7F8948091FA0447
:104680009091FB04A091FC04B091FD042FBF08950C
:104690002FB7F8946091FA047091FB048091FC04A8
:1046A0009091FD042FBF08959C014FB7F89480911D
:1046B000FA049091FB04A091FC04B091FD044FBF5B
:1046C000821B930B089578941F921FB61F9211249A
:1046D0008F939F93AF93BF938091FA049091FB04C3
:1046E000A091FC04B091FD040196A11DB11D809321
:1046F000FA049093FB04A093FC04B093FD04BF91D3
:10470000AF919F918F911F901FBE1F90189587E7C3
:1047100097E7909301088093000888E19AE00FB62C
:10472000F894A895809360000FBE90936000FFCF2F
:104730009093AF018093AE0108958091BF020895D8
:10474000CF93DF9300D00F92CDB7DEB790910205E3
:10475000943019F589837B836A8382E08093E90032
:104760008FEF9091E800815095FD06C095ED9A95E8
:10477000F1F700008111F5CF8091E80085FF0DC0B1
:1047800050E040E063E070E0CE0101960E94CA254F
:104790008091E8008E778093E8000F900F900F9043
:1047A000DF91CF910895BC0184E00C94A023BC015B
:1047B00083E00C94A0239C0182E08093E9009FEFAA
:1047C0008091E800915085FD06C085ED8A95F1F74E
:1047D00000009111F5CF8091E80085FF0CC050E0FA
:1047E00040E066E070E0C9010E94CA258091E800BF
:1047F0008E778093E8000895CF93DF93EC0180914A
:1048000020018823B1F18091C10287FF32C060E2AC
:1048100082E08093E9008FEF9091E800815095FD50
:1048200006C095ED9A95F1F700008111F5CF8091C2
:10483000E80085FF1BC08091200170E050E040E05F
:10484000811104C050E040E068E070E0CE010E94B9
:10485000CA258091E8008E778093E80080E2FE010F
:10486000AFE9B2E001900D928A95E1F7DF91CF9127
:10487000089568E081E0CDCF80910105811109C0E4
:104880000E945A270E94B7278091E200846080939B
:10489000E20008951092010508950895089508957D
:1048A00042E061EC81E00E94D62642E261EC82E0C7
:1048B0000C94D62680910405833009F45FC030F44F
:1048C0008130C1F1823009F49BC008958A3009F427
:1048D00087C08B3009F46DC0893009F04EC08091DB
:1048E0000305813209F049C08091070590910805C0
:1048F000029708F042C08091E800877F8093E8002B
:104900008091E80082FF35C09091F3008091F20021
:10491000029729F48091F1008B7F813021F48091FE
:10492000F1008093BF028091E8008B778093E800CC
:104930000C940A2780910305813AF9F48091E800EC
:10494000877F8093E8008091070590910805892B67
:1049500061F460E28FE992E070E00E941926809194
:10496000E8008B778093E800089560E090E080E0B5
:10497000F3CF809102058111C3CF08958091030583
:10498000813AD9F78091070590910805892BA9F7FD
:104990008091E800877F8093E8008091E80080FFA5
:1049A000FCCF809120018093F1008091E8008E7708
:1049B000BDCF80910305813201F780910705909169
:1049C0000805892BD1F68091E800877F8093E80065
:1049D0000E940A2780910505809320010C94EC1A0F
:1049E00080910305813249F68091E800877F8093AA
:1049F000E8000E940A27809106058093C00208956E
:104A000080910305813A09F0B8CF8091E800877F53
:104A10008093E8008091E80080FFFCCF8091C00285
:104A2000C2CF84B7877F84BF0FB6F894A8958091D2
:104A30006000886180936000109260000FBE80E883
:104A400090E00FB6F89480936100909361000FBEE0
:104A50000E9451160E945A270E94B7278091E200B7
:104A600084608093E20078940E94402A0E94651638
:104A700086E191E00E94B81580910205853099F099
:104A80000E9472160E946116F7CF0E94BD2280918B
:104A90000005882341F00E94EC22882321F00E9427
:104AA000B4250E94EC1A80910205853071F30E94B2
:104AB0000423E6CF0C945C25292F332723303105BE
:104AC00019F168F42130310509F444C02230310570
:104AD00009F445C090E080E030E020E025C02132BC
:104AE000310549F122323105A9F780E490E02FE346
:104AF00039E061157105C1F086EB90E029E838E0F6
:104B00006130710589F0E6CF99278130910581F0F8
:104B1000009729F00297F1F6ECE0F8E002C0E8E334
:104B2000F8E0849190E09F01FA0131832083089599
:104B3000E0E2F8E0F6CF89E090E02EE438E061159D
:104B4000710591F389E090E027E638E06130710566
:104B500059F3C0CF82E190E027E738E0E5CF8BE35F
:104B600090E02CE338E0E0CF80E189BD82E189BDAF
:104B700009B400FEFDCF8091D8008F7D8093D800CE
:104B80008091E00082608093E0008091E00081FDF0
:104B9000FCCF0895AF92BF92CF92DF92FF920F9316
:104BA0001F93CF93DF936C01EB018A010E942927A9
:104BB000F82E811123C00115110539F0F80180810B
:104BC0009181C81BD90BC80ED91EB12CA12C2097DE
:104BD000A9F08091E80085FD22C08091E8008E77E1
:104BE0008093E80001151105A1F0F8018081918101
:104BF000A80EB91EB182A08285E0F82E8F2DDF911C
:104C0000CF911F910F91FF90DF90CF90BF90AF9009
:104C100008950E9429278823D1F2F82EEFCFF601BC
:104C200081916F018093F1002197FFEFAF1ABF0AC6
:104C3000CECFFC018091090590910A058617970750
:104C4000A0F06115710529F49091E8009E7790938A
:104C5000E80090E06115710551F4911108C0809150
:104C6000E80082FF34C080E00895BC01F2CF80915B
:104C700002058823C1F18530C1F18091E80083FDF0
:104C800030C08091E80082FDEACF8091E80080FF8B
:104C9000E1CF8091F3002091F200382F611571056A
:104CA00019F02830310558F091E02830310509F02D
:104CB00090E02091E8002E772093E800CBCF8191FF
:104CC0008093F100615071092F5F3F4FE7CF8091D2
:104CD0000205882341F0853041F08091E80083FF90
:104CE000BECF81E0089582E0089583E00895FC013D
:104CF0008091090590910A0586179707A0F0611524
:104D0000710529F48091E8008E778093E80090E0A7
:104D10006115710551F4911108C08091E80082FF7E
:104D200035C080E00895BC01F2CF80910205882350
:104D3000C9F18530C9F18091E80083FD31C08091CF
:104D4000E80082FDEACF8091E80080FFE1CF80910A
:104D5000F3002091F200382F6115710519F0283009
:104D6000310558F091E02830310509F090E080914C
:104D7000E8008E778093E800CBCF84918093F10098
:104D80003196615071092F5F3F4FE6CF8091020548
:104D9000882341F0853041F08091E80083FFBDCF4A
:104DA00081E0089582E0089583E00895982F973078
:104DB00028F08F708093E90081E008959093E900D6
:104DC000242F762F50E0981731F07091EC0020914D
:104DD000ED005091F00021FD02C09F5FE8CF3091BF
:104DE000EB003E7F3093EB003091ED003D7F309340
:104DF000ED003091EB0031603093EB007093EC00EC
:104E00002093ED005093F0002091EE0027FDE5CFB8
:104E100080E008958091030587FF13C08091E8002A
:104E200082FF06C08091E8008B778093E80004C081
:104E3000809102058111F2CF0895809102058823A7
:104E4000D9F38091E80080FFF8CF8091E8008E7759
:104E5000ECCF2091E4003091E50095E6A901209186
:104E6000EC00822F817020FF06C08091E80080FF57
:104E700006C080E008952091E80022FD1AC08091CC
:104E80000205882389F0853089F08091EB0085FD4B
:104E90000FC02091E4003091E50042175307F9F26A
:104EA0009150E1F684E0089582E0089583E008954A
:104EB00081E008950E94C8270E94D027E0EEF0E02C
:104EC000808181608083E8EDF0E080818F7780834E
:104ED00019BCA7EDB0E08C918E7F8C9380818F7E82
:104EE00080831092010508950F931F93CF93DF9352
:104EF0000E94C8270E94D027C8EDD0E088818F7714
:104F0000888388818068888388818F7D888319BCA5
:104F1000109202051092FE04109200051092FF04F8
:104F200000EE10E0F80180818B7F808388818160B2
:104F3000888342E060E080E00E94D626E1EEF0E067
:104F400080818E7F8083E2EEF0E0808181608083CB
:104F5000808188608083F80180818E7F8083888152
:104F600080618883DF91CF911F910F910895E8EDC3
:104F7000F0E080818F7E8083E7EDF0E080818160CA
:104F8000808384E082BF81E0809301050C947427C4
:104F9000E8EDF0E080818E7F80831092E20008953A
:104FA0001092DA001092E10008951F920F920FB64E
:104FB0000F9211242F933F934F935F936F937F939F
:104FC0008F939F93AF93BF93EF93FF938091E100F3
:104FD00082FF0BC08091E20082FF07C08091E10058
:104FE0008B7F8093E1000E943F2A8091DA0080FF4E
:104FF00019C08091D80080FF15C08091DA008E7FA3
:105000008093DA008091D90080FF96C080E189BD4D
:1050100082E189BD09B400FEFDCF81E080930205E5
:105020000E943C248091E10080FF19C08091E20041
:1050300080FF15C08091E2008E7F8093E200809116
:10504000E20080618093E2008091D80080628093CA
:10505000D80019BC85E0809302050E944E248091FF
:10506000E10084FF2BC08091E20084FF27C080E133
:1050700089BD82E189BD89B5982F917080FFFBCFF2
:105080008091D8008F7D8093D8008091E1008F7E41
:105090008093E1008091E2008F7E8093E200809116
:1050A000E20081608093E2008091FE04882309F48D
:1050B00049C084E0809302050E944F248091E10062
:1050C00083FF29C08091E20083FF25C08091E10029
:1050D000877F8093E10082E0809302051092FE04B6
:1050E0008091E1008E7F8093E1008091E2008E7FCD
:1050F0008093E2008091E20080618093E20042E0D0
:1051000060E080E00E94D6268091F0008860809365
:10511000F0000E944D24FF91EF91BF91AF919F91BC
:105120008F917F916F915F914F913F912F910F9050
:105130000FBE0F901F90189519BC109202050E9487
:105140004A2470CF8091E30087FD93E0909302059D
:10515000B3CF1F920F920FB60F9211242F933F934C
:105160004F935F936F937F938F939F93AF93BF936F
:10517000CF93DF93EF93FF93D091E900DF7080919D
:10518000EC00C82FC17080FDC0E81092E90080914A
:10519000F000877F8093F00078940E94ED281092B1
:1051A000E9008091F00088608093F000CD2BCF70F3
:1051B000C093E900FF91EF91DF91CF91BF91AF9143
:1051C0009F918F917F916F915F914F913F912F911F
:1051D0000F900FBE0F901F9018951F93CF93DF93E2
:1051E000CDB7DEB7AA970FB6F894DEBF0FBECDBF1E
:1051F00083E095E02091F100FC012193CF01F5E0DF
:105200008B309F07B9F70E945A248091E80083FFF2
:105210001EC180910305909104059A3008F017C1D2
:10522000E92FF0E0ED5EF44D0C948F2A803899F070
:10523000823809F00CC1809107058F70873008F023
:1052400006C18093E9008091EB0085FB882780F9F7
:105250001092E90006C08091FF0490910005911121
:1052600082609091E800977F9093E8008093F1002E
:105270001092F1008091E8008E77E5C0882309F450
:10528000D3C0823009F0E3C0809105058111D6C0FA
:10529000809107058F702FEF280F263008F0D7C0B8
:1052A0008093E9002091EB0020FFC8C0933031F4D7
:1052B0008091EB0080628093EB00C0C09091EB0086
:1052C00090619093EB0021E030E001C0220F8A95BD
:1052D000EAF72093EA001092EA008091EB008860E0
:1052E000EACF8111B4C0109105051F778091E300CA
:1052F0008078812B8093E3008091E800877F809302
:10530000E8000E940A278091E80080FFFCCF80918E
:10531000E30080688093E30082E0111183E08093D2
:10532000020595C08058823008F091C08091050533
:10533000909106058C3D23E09207A1F583E08A83D6
:105340008AE289834FB7F894DE01139620E03EE0AD
:1053500051E2E32FF0E050935700E49120FF03C0A7
:10536000E295EF703F5FEF708E2F90E0EA30C0F073
:10537000C7968D939D932F5F243159F74FBF80912E
:10538000E800877F8093E8006AE270E0CE01019632
:105390000E9419268091E8008B778093E80057C01F
:1053A000C096E7CF6091070570910805AE014F5F89
:1053B0005F4F0E945A25BC01892B09F448C0909187
:1053C000E800977F9093E80089819A810E94772670
:1053D000E1CF8038E1F58091E800877F8093E80095
:1053E0008091FE048093F10045CF811130C09091EF
:1053F0000505923060F58091E800877F8093E80092
:105400009093FE040E940A278091FE04882311F0E5
:1054100084E005C08091E30087FDFACF81E08093AE
:1054200002050E94502413C080910505813079F453
:1054300081E0933009F080E0809300051092E9004C
:105440008091E800877F8093E8000E940A2780917E
:10545000E80083FF0AC08091E800877F8093E8001E
:105460008091EB0080628093EB00AA960FB6F894CF
:10547000DEBF0FBECDBFDF91CF911F91089508957C
:10548000CF93809102058823A1F0C091E900CF70ED
:105490009091EC00892F817090FD80E8C82B1092CC
:1054A000E9008091E80083FD0E94ED28CF70C09351
:1054B000E900CF910895991B79E004C0991F9617D0
:1054C00008F0961B881F7A95C9F780950895AA1B46
:1054D000BB1B51E107C0AA1FBB1FA617B70710F0DF
:1054E000A61BB70B881F991F5A95A9F78095909511
:1054F000BC01CD01089597FB072E16F4009407D048
:1055000077FD09D00E94672A07FC05D03EF49095EC
:1055100081959F4F0895709561957F4F0895EE0F87
:10552000FF1F0590F491E02D0994FB01DC0102C0FE
:1055300005900D9241505040D8F70895FB01DC01D1
:1055400004C08D910190801921F441505040C8F75A
:10555000881B990B0895F999FECF92BD81BDF89AE9
:10556000992780B50895A6E1B0E044E050E00C949E
:10557000E52AA8E1B0E042E050E00C94E52A262FAD
:10558000F999FECF92BD81BDF89A019700B4021639
:1055900039F01FBA20BD0FB6F894FA9AF99A0FBEE7
:1055A00008950396272F0E94C02A0E94BF2A252F04
:1055B0000E94C02A242F0C94C02A0196272F0E94F3
:1055C000C02A0C94BF2ADC01CB01FC01F999FECF63
:1055D00006C0F2BDE1BDF89A319600B40D9241507B
:1055E0005040B8F70895F894FFCFB518B5180D19C5
:1055F0000D195F197B19E218E2188619121A211A7F
:10560000211A7D1AE218E218861AFB1AFB1A041BEB
:10561000041B061B041B041B041BFB1AFB1A0B1B9D
:10562000041B041B0B1B16293E29272A3E29272A67
:0A56300071299229272AE929F5299A
:10563A002808641E140A321E000800080800210007
:10564A007F2200037A029D23FC23DB23D723D32363
:10565A0001E200E900EA00B500B600B700CD008318
:10566A0001CC008A0192019401210223022402251D
:10567A0002260227022A02B300B4006F00700081DA
:10568A0082839392946697C63435363233F4F5F6AC
:10569A00F731000100FF0100010000FFFF000001D7
:1056AA000001FF000008101818100800E200E900C5
:1056BA00EA00B500B600B700CD008301CC008A012C
:1056CA0092019401210223022402250226022702C2
:0E56DA002A02B300B4006F00700081828300CA
:00000001FF
