:100000000C940D060C9454060C9454060C9454064F
:100010000C9454060C9454060C9454060C945406F8
:100020000C9454060C9454060C9402200C943E1F1D
:100030000C944F220C9454060C9454060C945406C1
:100040000C9454060C9454060C9454060C945406C8
:100050000C9454060C9402220C9454060C945406EE
:100060000C9454060C9454060C9454060C945406A8
:100070000C9454060C9454060C9454060C94540698
:100080000C9454060C9454060C9454060C94540688
:100090000C9454060C9454060C9454060C94540678
:1000A0000C9454060C9454060C945406560C6C0C88
:1000B000730CAB0CBC0CC70CD30CE20C040EEA0C9A
:1000C000110D3A0D700D730DEB12EB122313231368
:1000D000AE13CC130F150F15D9134B145A145A1411
:1000E00054165416661666165D166616661666165D
:1000F000541654166216661666166216461D6D1D57
:10010000201F6D1D201FB91DDC1D201FDD1EED1ED3
:1001100000DA0281FFD9F1DB20A4A62EAF00A0C037
:1001200000A1C800AED580A81FD300408D142000C8
:10013000464E0A00424153450A00004C415945527F
:10014000000A0A0000AEFD377A585A000004E6D6CD
:10015000B4460200210116000000742FE5A3E0035D
:100160007E01525D003D8889C65436C3174FE4F9BD
:100170004EACF15CA2CA8075E34BBB893871EEBC12
:10018000A77F9018EA7C337E549105C1F3BD0662C7
:10019000CD5B600323CB606599866D9F64F56697A0
:1001A0006FDDF00B641F53DD2F3AA3C4A967A28B48
:1001B0005013F8D3805B413A9017B258CA8F46412A
:1001C00082429E20EB9CBC75F77DB4753FB65759B3
:1001D00042F408DD07E909503726814F9C1FE95E8C
:1001E000C99F706ACD55073AE18C82DF523CF575A4
:1001F0001691E074567271E1FC67BCE9873E49DAFA
:100200001FF4EDBCCA64D2D33D611DE819D6DEED02
:10021000F2E41A4D81DABF47859D5870D0380FB48B
:10022000771FDCD9D4DF0D07F9C2155AF56AEA8EBB
:1002300028A184404D472D34739E6D77EE73277C43
:1002400044414A20369C8CB704BE8AD7CA1C527CD3
:100250001F8C6F7C981607FFF4EE6185648EC7379C
:10026000D89209D99FD9EAC2F7A0002CA2F0901029
:10027000655C70087BA3B8BFA3768094511785F79F
:1002800061D389772710F4CF5BD465DB2DAB147B6A
:100290002658839A82ED222073485E37D4B62174A3
:1002A0006CC1A14D95D22352236DB4FE307550A080
:1002B000CDA8127D6679C8000000953D104645B76F
:1002C000D5B00001EE02FF0600000C87534FB1C409
:1002D00067FB020000000004595A05010902A10150
:1002E00085020901A100050919012905150025014B
:1002F000950575018102950175038101050109309C
:1003000009311581257F9502750881060938158107
:10031000257F950175088106050C0A38021581258F
:100320007F950175088106C0C005010980A101857E
:100330000319012AB700150126B700950175108130
:1003400000C0050C0901A101850419012AA00215AC
:100350000126A002950175108100C005010906A1C2
:10036000018505050719E029E715002501950875A0
:100370000181020507190029EF1500250195F07587
:10038000018102050819012905950575019102955C
:100390000175039101C00660FF0961A101096215A1
:1003A0000026FF009520750881020963150026FFCD
:1003B00000952075089102C005010906A1010507F5
:1003C00019E029E7150025019508750181029501BD
:1003D000750881010507190029FF150026FF009502
:1003E0000675088100050819012905950575019113
:1003F00002950175039101C009025B00030100A091
:10040000FA090400000103010100092111010001A2
:100410002240000705810308000A090401000203C5
:1004200000000009211101000122220007058203BA
:100430002000010705030320000109040200010355
:1004400000000009211101000122BC0007058403FE
:1004500020000A12010002000000086B66626601BB
:1004600000010203011C037600690061006C003A80
:10047000006600360034006300320062003300631F
:1004800000000012034600720075006900740062EB
:1004900000610072000000160366007200750069BA
:1004A00000740079006B00650065006200000004C4
:1004B00003090407087F0807003E5B4F5B3E003ED0
:1004C0006B4F6B3E001C3E7C3E1C00183C7E3C1873
:1004D000001C577D571C001C5E7F5E1C0000183CF2
:1004E000180000FFE7C3E7FF00001824180000FF12
:1004F000E7DBE7FF0030483A060E00262979292677
:1005000000407F05050700407F05253F005A3CE776
:100510003C5A007F3E1C1C0800081C1C3E7F001437
:10052000227F2214005F5F005F5F0006097F017F6A
:1005300000006689956A0060606060600094A2FFB8
:10054000A2940008047E04080010207E20100008F9
:10055000082A1C0800081C2A0808001E1010101089
:10056000000C1E0C1E0C0030383E383000060E3ECB
:100570000E060000000000000000005F0000000008
:100580000700070000147F147F1400242A7F2A121A
:100590000023130864620036495620500000080703
:1005A000030000001C224100000041221C00002A20
:1005B0001C7F1C2A0008083E0808000080703000DC
:1005C000000808080808000000606000002010080B
:1005D0000402003E5149453E0000427F4000007247
:1005E00049494946002141494D33001814127F10F2
:1005F000002745454539003C4A4949310041211110
:10060000090700364949493600464949291E000074
:1006100000140000000040340000000008142241D3
:10062000001414141414000041221408000201598B
:100630000906003E415D594E007C1211127C007F7C
:1006400049494936003E41414122007F4141413EF6
:10065000007F49494941007F09090901003E4141A4
:100660005173007F0808087F0000417F410000208F
:1006700040413F01007F08142241007F404040403C
:10068000007F021C027F007F0408107F003E414172
:10069000413E007F09090906003E4151215E007F6D
:1006A000091929460026494949320003017F0103FF
:1006B000003F4040403F001F2040201F003F403887
:1006C000403F0063140814630003047804030061CE
:1006D00059494D4300007F41414100020408102068
:1006E00000004141417F00040201020400404040FB
:1006F0004040000003070800002054547840007F69
:100700002844443800384444442800384444287F6E
:100710000038545454180000087E09020018A4A49C
:100720009C78007F080404780000447D400000208D
:1007300040403D00007F102844000000417F400001
:10074000007C04780478007C080404780038444471
:10075000443800FC182424180018242418FC007CB9
:10076000080404080048545454240004043F44245A
:10077000003C4040207C001C2040201C003C4030BD
:10078000403C004428102844004C9090907C004449
:1007900064544C440000083641000000007700001B
:1007A000000041360800000201020402003C26233A
:1007B000263C00000000000000404040F0F8F8FF38
:1007C00038FFF8F83FF8F8FF38FFF8F8F0404040FD
:1007D00000000000000080C0C0C0800000C0C080D9
:1007E00000000080C0C000C0C0000080C0C0000089
:1007F000000000C0C0C0C0C000C0C00000000000B9
:1008000000000000000000000000000000000000E8
:1008100000000000000000000000000000000000D8
:1008200000000000000000000000000000000000C8
:100830000000C0F0F8FC3E1E06010000007F4141B0
:10084000417F007F4141417F000080C0E07E5B4FDF
:100850005BFEC00000C000DCD7DEDEDED7DC00C0FF
:100860000000000000000000000000000000000088
:10087000000000000000000000494949FFFFFFFFA1
:10088000E0DFBFBF00BFBFDFE0FFFFFFFF49494917
:1008900000000000001F3F6060E0BF1F007F7F0777
:1008A0001E381E077F7F007F7F0E1F3B7160000098
:1008B0000000007F7F0C0C0C007E7E007F7E030317
:1008C000007F7E03037E7E03037F7E000F3E703C2D
:1008D000063C703E0F00327B49493F7E007F7E031D
:1008E00003001E3F69696F26000000000000000041
:1008F0000000030F1F3F3C7870600000007F414103
:10090000417F007F4141417F00307B7F7830202054
:1009100030787F3B0003000F7F0F0F0F7F0F000326
:1009200000000000000000000000000000000000C7
:10093000000000000000000000010101070F0F7F10
:100940000F7F0F0F7E0F0F7F0F7F0F0F070101012A
:100950000000000000000000000001010000000095
:100960000000000000000000000000000000000087
:100970000000000000000000000000000000000077
:100980000000000000000000000000000000000067
:100990000000000000000000000000000000000057
:1009A0000000000000000000000000000000000047
:1009B0000000000000000000000000000000000037
:1009C0000000000000000000000000000000000027
:1009D0000000000000000000000000000000000017
:1009E0000000000000000000000000000000000007
:1009F00000000029001A000800150017001C000C58
:100A00000013002F002A004A002B001400070009E1
:100A1000000A00180012000F00300031004D00E104
:100A20000004001600060005000B000E0033003421
:100A30000028005200E0001D001B00190011000DED
:100A400000360037003800E5005100E300E2002CDA
:100A5000002C002C001000E6000151E40050004F73
:100A60000035001F00200021002200230025002760
:100A7000002D004C004E0039001E003C003D003EA1
:100A8000002400260042002E0045004B0001003AE1
:100A9000003B00010001003F004100430044000111
:100AA000000100005C0100010001000100400001A4
:100AB000000100010001000100010001000100012E
:100AC000000100010001000100010001000100011E
:100AD000000100B105000002000200AD05000003A6
:100AE000000100B20500000400020097055E210528
:100AF000000100B305000006000200990500000790
:100B0000000200AF05000008000100B40500000964
:100B10000002009B0539210A0002009D0539210BC6
:100B20000002009F0539210C000200A10539210DAA
:100B3000000200A30539210E000200A50539210F8E
:100B4000000200A705392110000200A90539211172
:100B5000000200AB05392112000200B505000013A8
:100B6000000200B705000000AF0000000000000018
:100B70000000000000000000000000000000000075
:100B8000000000000000000000000000007E0F00D8
:100B9000D4FFFFFFC7000000780000000000000045
:100BA000002A2B28000000000000000000000000C8
:100BB0000000000029000000002C1E342021222407
:100BC000342627252E362D3738271E1F2021222395
:100BD0002425263333362E37381F04050607080927
:100BE0000A0B0C0D0E0F10111213141516171819ED
:100BF0001A1B1C1D2F3130232D350405060708094B
:100C00000A0B0C0D0E0F10111213141516171819CC
:100C10001A1B1C1D2F3130354C0011241FBECFEF85
:100C2000DAE0DEBFCDBF04B603FE27C08091B20676
:100C30009091B306A091B406B091B5068730904B61
:100C4000A740B04BD1F41092B2061092B3061092A6
:100C5000B4061092B50614BE84B7877F84BF0FB662
:100C6000F894A8958091600088618093600010924C
:100C700060000FBEE0E0F8E3099511E0A0E0B1E00C
:100C8000E2E3FFE602C005900D92A239B107D9F761
:100C900026E0A2E9B1E001C01D92A23BB207E1F754
:100CA0000E9456060C9497370C940000CF93DF9364
:100CB000CDB7DEB7EA970FB6F894DEBF0FBECDBF53
:100CC00084B7877F84BF0FB6F894A89580916000A1
:100CD000886180936000109260000FBE90E080E811
:100CE0000FB6F89480936100909361000FBE85B7B2
:100CF000806885BF85B7806885BF87E797E2909356
:100D00009301809392010E94F72D0E949E2D0E94D4
:100D10000C260E94821F0E94A11F8091E200846025
:100D20008093E2007894809118028823A1F01091BA
:100D3000E9001F709091EC00892F817090FD80E890
:100D4000182B1092E9008091E80083FD0E94601C3E
:100D50001F701093E90082E084BD93E095BD9AEF87
:100D600097BD80936E000E947A2E811102C00E946E
:100D70006B2E09E211E0D8018D918D018F3F11F0AA
:100D80000E94BC27B1E00E321B07A9F70EE211E06A
:100D9000F80181918F018F3F11F00E94BC27F1E093
:100DA00009331F07A9F7E4E9F1E0A1EDB1E01192E1
:100DB00011921D921D9221E0EE39F207C1F780E0F9
:100DC00090E00E940B378A3E9E4F21F40E947A2EBB
:100DD000811102C00E947E2982E090E00E940337C8
:100DE0008093C4010E946D299093C9058093C80522
:100DF0000E94F32A8FE39CE90197F1F700C00000FD
:100E00000E94F32A8091D10180FF08C06FEF7FEF2D
:100E100080E090E00E942F370E94F12183E090E073
:100E20000E9403370E94421683E08093C10180E252
:100E3000809323020E94C7356DE070E083E291E069
:100E40000E94371C892B09F043C08091C10163E0E7
:100E500070E081FD3AC080E291E00E94371C892B4E
:100E6000B9F56DE070E080E191E00E94371C892BBC
:100E700079F50E943722DC01CB01805A9541AF4FB2
:100E8000BF4F8093320490933304A0933404B09303
:100E90003504E6E2F2E080E092E0DF019C011D9281
:100EA00021503040E1F7F0932D04E0932C048FEFB4
:100EB0009FEF909325028093240281E08093370472
:100EC000809336041092C20103C08DE191E0C5CF3A
:100ED0008098889A8198899A8FB1982F9170799B80
:100EE00002C082E001C080E0892B8093A00180E0F5
:100EF00091E09093C0058093BF05BE016F5F7F4F67
:100F00007B01CE010B969EAB8DAB80911802853094
:100F100009F048C050E4D52E00E112E1809118029A
:100F2000853009F03BC080911802843019F110928D
:100F3000C305A8E1B0E00FB6F894A895A0936000AF
:100F40000FBED092600083B7817F846083BF83B778
:100F5000816083BF7894889583B78E7F83BF0FB6F7
:100F6000F894A89580916000886180936000109249
:100F700060000FBE80911702882309F4CFCF0E9432
:100F8000F32AE1EDF1E081919191892B09F062C69C
:100F90002BED31E02E173F07B1F7C0CF0E94791635
:100FA0000E9401230E94F32AA82E81110E94372259
:100FB000E5ECF1E0A1EDB1E000E010E0602F2D9153
:100FC0003D918191919182279327009709F43FC029
:100FD00070E0CC24C394D12CA60148235923452B7F
:100FE00089F17BA76CA72C213D2181E0232B09F4FB
:100FF00080E08DA70E9443228160782F9FA78EA753
:101000004BA55CA56DA58FA50E946433000F111F31
:10101000F801EB53FE4F80819181C826D926D182F9
:10102000C0828091A001E82FEE0FEE0FE093A001A7
:101030008FB180FB442440F8512C799B1FC082E083
:1010400090E01EC07F5FCC0CDD1C7B3029F60F5F6B
:101050001F4F0530110509F0B1CF8FEF88AB89AB79
:101060001AAA0E9443228160782F9CAB8BAB48A9BF
:1010700059A96AA98CA90E946433D3CF80E090E07B
:10108000842995298E2B8093A0018F70E82FF0E0A2
:10109000E75CFE4F908180919F01890F80939F01B3
:1010A000843064F080919E018F5F80939E0160E0A8
:1010B00080E00E940031BB24B39401C0B12C809128
:1010C0009F018D3F5CF480919E01815080939E0131
:1010D00061E080E00E940031BB24B39480919F01C5
:1010E000082E000C990B64E070E00E945937809341
:1010F0009F01B1100E94372280913704882309F4A0
:101100003CC186E292E090932D0480932C0481E40C
:1011100091E00E941E1C8BE391E00E941E1C81E066
:101120000E94DC258AE391E00E941E1C81E00E945F
:10113000DC25809122020E943932882329F08130F7
:1011400039F480E391E002C084E391E00E941E1C28
:1011500080913704882309F4E5C02091240230915E
:1011600025022115310509F4DDC08091C2018111EC
:10117000D9C0282E312CCC24C394D12C082E02C0E7
:10118000CC0CDD1C0A94E2F7A9014C215D21452B12
:1011900011F48F5FEECF9091C1019101E5E0220F34
:1011A000331FEA95E1F790FD12C08295880F807693
:1011B00080930C01220F232F221F330B3195209394
:1011C0000F01815E80930D011092100112C065E045
:1011D000369527956A95E1F7220F220F220F20936B
:1011E0000C0110920F01295F20930D0183E0809381
:1011F000100124E630E047E050E06AE071E088E763
:101200000E947E36892B09F08DC08091C10180FD3E
:1012100023C0C10155E0880F991F5A95E1F7AC0131
:101220004A5D5D4F04E610E020E230E060E488E7CC
:101230000E94A536892B09F075C00E94B625C0947E
:10124000D0948091240290912502C822D922D09274
:101250002502C092240266C080E2E1EAF1E0DF01EB
:101260001D928A95E9F745E0220C331C4A95E1F777
:10127000EDE4F1E0FAAFE9AF49E451E0A9ADBAAD70
:101280008D91BAAFA9AFFA019191AF019101290FE8
:10129000311DB9016A5D7D4F78AF6FAB90E08F551E
:1012A0009E4FFC0107E09F01281B390B8824839483
:1012B00001C0880C2A95EAF76FA978AD912CDB0163
:1012C0001D91BD011821202F29192770722E022E81
:1012D000000C330BB12F01C0BB0F7A94EAF77B2EC1
:1012E0003195219531092770332701C016952A952C
:1012F000EAF7712A1081712A7082939428E0921281
:10130000DECF015031960F3F71F669AD7AAD615570
:10131000714009F0B3CF04E610E020E230E041EA8A
:1013200051E084CF80913604882339F10E9437221E
:10133000009132041091330420913404309135042B
:10134000DC01CB01801B910BA20BB30B8F3F9F4F96
:10135000AF4FBF4790F480913704882371F080919C
:101360003604882351F062E070E084E491E00E944A
:10137000371C892B11F410923604A11001C0B11052
:101380000E94B62586E0E9E4F6E0D70101900D92CF
:101390008A95E1F7C0904B06D0904C0600914D061F
:1013A00010914E0610924B0610924C0610924D066C
:1013B00010924E06C11003C0DD2009F45DC080917B
:1013C0004706909148060E942822AC01909143065E
:1013D000992339F020911A0130E02417350758F08D
:1013E0004BC020911B01FAE02F9F9001112424177C
:1013F000350718F041C09F3F19F09F5F9093430657
:10140000CC2061F00E94512F1C1414F491E001C013
:101410009FEF899F802D112480934B06DD2061F082
:101420000E94512F1D1414F491E001C09FEF899F79
:10143000802D112480934C0630914B063323E1F02C
:1014400020914C062223C1F045EB3403C001112446
:10145000992319F090934B0603C081E080934B06CB
:1014600065EB2603C0011124992319F090934C06D3
:1014700003C081E080934C06011103C0112309F4DD
:101480005DC080914506909146060E942822AC01DD
:1014900090914206992339F02091160130E02417EB
:1014A000350758F04BC0209117017AE0279F900133
:1014B00011242417350718F041C09F3F19F09F5F92
:1014C00090934206002361F00E94182F101614F426
:1014D00091E001C09FEF899F802D112480934D06DC
:1014E000112361F00E94182F111614F491E001C02D
:1014F0009FEF899F802D112480934E0630914D06D9
:101500003323E1F020914E062223C1F045EB340352
:10151000C0011124992319F090934D0603C081E076
:1015200080934D0665EB2603C0011124992319F021
:1015300090934E0603C081E080934E0680914B0647
:1015400081110BC080914C06811107C080914D061E
:10155000811103C080914E0681110E940F32CB820F
:10156000DC820D831E8386E0F701A9E4B6E00190DA
:101570000D928A95E1F70E9401239091C30189178A
:1015800021F00E9401238093C301809118028430CE
:1015900009F0BBCC83E08093E9008091E80082FFF2
:1015A000B4CC8091E80085FF1FC00E94D720811134
:1015B00019C000E210E0670108C08091F100D60177
:1015C0008D936D010150110969F08091E80085FD4E
:1015D000F4CF8091E8008B778093E8000E94D720B9
:1015E000882399F391E001C090E08091E8008B7727
:1015F0008093E800992309F488CC0091300410917D
:10160000310489810115110561F08E3F09F0FCC29A
:101610008A81833008F43EC18550833008F0F4C2DB
:1016200039C1893009F4EEC2F0F4843009F472C093
:1016300050F48230C1F108F05EC0813009F0E2C29E
:101640001A8289E0C5C1863009F46BC008F0DAC29D
:101650002D813E813227232732274C816B818A815D
:101660000E943A2DD1C2803109F4B8C080F48D3087
:1016700009F45AC028F48C3009F0C4C280E160C279
:101680008E3009F455C08F3009F47BC0BBC2823163
:1016900009F4A9C008F4A5C0833109F4CBC08E3F7A
:1016A00009F4F8C0AFC28A81823009F4E9C28330FC
:1016B00051F0813009F0A6C20E9437229B838C83AF
:1016C0007D836E83A1C28091120190911301892BB9
:1016D00009F49AC2F701A1EDB1E08C9111969C91A9
:1016E000119712969283838332962DA93EA92E17C5
:1016F0003F0799F789C28A81823009F083C26B81E2
:101700007C818D819E810E94733786E290E00E94E9
:1017100011377AC24C816B818A810E94702D9D8322
:10172000B6C20E94BD2670C282E08A8383E350C1A4
:101730000A811B81102701271027AC80B12C3DE1C5
:10174000A316B10408F060C26701C80183539E4F1D
:1017500096012E193F092A153B0508F055C203339F
:1017600042E0140730F40E940337D60114968C939C
:1017700002C0F60114820F5F1F4FFFEFCF1ADF0A7E
:10178000E4CF8091120190911301892B09F43CC29E
:101790000A811B81102701271027CC80D12C2DE135
:1017A000C216D10408F030C25701C80183539E4FBE
:1017B00095012E193F092C153D0508F025C203336C
:1017C00032E0130728F4D50114966C910E9411376A
:1017D0000F5F1F4FBFEFAB1ABB0AE7CF0E949126E6
:1017E00013C282E0ADC10A811B8110270127102797
:1017F000AC80B12CEDE1AE16B10408F005C2670172
:10180000C801879696012E193F092A153B0508F055
:10181000FBC10C3D110530F40E940337D60114962C
:101820008C9302C0F60114820F5F1F4FFFEFCF1A97
:10183000DF0AE6CF0A811B81102701271027CC8001
:10184000D12C2DE1C216D10408F0DEC10C3D1105EA
:1018500008F0DAC18CED90E0801B910B8C159D0592
:1018600008F4D2C15701C801879695012E193F0986
:101870002C153D0508F0C8C10C3D110528F4D50113
:1018800014966C910E9411370F5F1F4FBFEFAB1A78
:10189000BB0AE9CFEA818E2F90E08E30910508F0E7
:1018A000B3C1FC01EA5AFF4F0C946D3788E0E1E2C6
:1018B000F1E0DE01919601900D928A95E1F780E2C8
:1018C000F70111928A95E9F784E0898388E0FE01A7
:1018D000B196DE01159672C184E9898381E08A831D
:1018E0001B821C8291C18C8190E0982F88272B81CC
:1018F000820F911D092E000CAA0BBB0B35E0880F3F
:10190000991FAA1FBB1F3A95D1F7AC01BD01405EDC
:101910005F4F6F4F7F4F481759076A077B0708F4DF
:1019200073C18439F1E09F07A105B10508F06CC1CE
:10193000453921E052076105710520F044E951E085
:1019400060E070E0481B590BBC016A5B7E4FC70129
:101950000E94EA3659C11B810C8140E0602F812F23
:101960000E94102D99838A8341E0602F812F0E946D
:10197000102D9B838C8348C12E813F8132272327E2
:1019800032274D816C818B810E94DE2C3DC140E26B
:1019900050E06FEF70E0C7010E9490378091120114
:1019A00089830A8331C161E070E0709331046093F0
:1019B000300482E390E09093D0018093CF010E94A5
:1019C000432222C18091120189830A838091CF0131
:1019D0008B831AC10B811C8140E250E06FEF70E0F5
:1019E000C7010E9490372FEC3AE080E090E0AC0114
:1019F0004E5F5F4F4132510508F006C1F901659114
:101A000074910617170730F4F701E80FF91F718377
:101A10006083CA01285F3F4F7BE02736370739F7DD
:101A2000F3C02B813C818FEC9AE0FC0145915491ED
:101A30002417350731F00896ABE087369A07A9F7E7
:101A4000E1C0009709F4DEC09C012E5F3F4FF90111
:101A5000459154914032510508F0D4C0F9014591A7
:101A60005491FC01349665917491CE0102960E94C6
:101A7000873734C08B819C810FEC1AE0F8012591E7
:101A800034912817390739F0085F1F4FBBE007363C
:101A90001B07A1F7B7C00115110509F4B3C0C801B0
:101AA0000296FC01259134912D31310508F0AAC030
:101AB000FC0145915491F801349685919491BE01B1
:101AC0006B5F7F4F0E9487370E943326F80136965E
:101AD00085919491009711F0FC01099580E093C0E5
:101AE0000E94502691C08B81823061F1E0F48823FE
:101AF00001F1813009F088C08C819AE0D92E8E01E5
:101B00000F5D1F4FF8012D2D11922A95E9F7B801AD
:101B10000E9462278983F801DE01129601900D92DE
:101B2000DA94E1F771C0833061F1843009F44BC07D
:101B30006BC080E2D7011D928A95E9F788E089831E
:101B40008A8362C06C818AE0FE013596DE0191963F
:101B500001900D928A95E1F7683070F43AE0639F46
:101B6000B0011124635D7E4F4AE050E0CE018196C2
:101B70000E94353780E001C08FEF89830E94F72DE6
:101B800043C06C81CE0181962AE0DC011D922A952A
:101B9000E9F7683060F4BAE06B9FB0011124635834
:101BA0007E4F4AE050E00E94F33680E001C08FEFA4
:101BB00089838AE0FE01B196DE01129601900D92B2
:101BC0008A95E1F721C06C818AE0FE013596DE013D
:101BD000919601900D928A95E1F7683070F4EAE0F1
:101BE0006E9FB001112463587E4F4AE050E0CE0151
:101BF00081960E94353780E001C08FEF89830E9473
:101C00009E2D02C08FEF898380911802843009F0E5
:101C10007CC91091E9001F709091EC00892F8170B0
:101C200090FD80E8182B82E08093E9008091E80025
:101C300080FF0CC040E050E060E270E0C7010E940D
:101C40000A218091E8008E778093E8001F7010933E
:101C5000E9005BC909BD19BD09B400FEFDCF809143
:101C6000D8008F7D8093D8008091E00082608093BF
:101C7000E0008091E00081FDFCCF0E9479164EC902
:101C800086E290E00E9403371B821C821D828E83B5
:101C9000BBCF8F929F92AF92BF92CF92DF92EF9283
:101CA000FF920F931F93CF93DF9300D000D0CDB757
:101CB000DEB77C01DC0113964D915C91149711966F
:101CC0006C9111978C910E94E5238111F9C661E016
:101CD000C7010E9429338C01F7018281811106C05E
:101CE000D70112968C9181113DC0BDC08091200119
:101CF0008F3FB1F356EEC52E54E0D52EA12CB12C5A
:101D00009924939480912001082E000C990B8A1538
:101D10009B0534F3F60186818823E9F0818592855D
:101D20000817190739F48091E4049091E504081725
:101D3000190789F0D6011F969C921F971C961C9339
:101D40000E931B97C6010E94C023C60106960E94EF
:101D5000792310929605BFEFAB1ABB0AE6E1CE0ECF
:101D6000D11CD0CFC80182519F45409708F0A1C334
:101D70008FEF93E00E94033781117EC04EEED42E88
:101D8000D00E0DEC11E0DD2071F00115F4E01F071D
:101D900009F472C0C8010E940337811101C0DA94AE
:101DA0000F5F1F4FF0CF19821A821B821C82AA2458
:101DB000AA9468012FEFC21AD20AC8010E94033701
:101DC00089831A82882309F457C0813009F046C0FC
:101DD000480142E0840E911CC6010E9403378A83A9
:101DE000882309F449C09FEF980F933060F468018D
:101DF00053E0C50ED11CC4010E9403378B838111AF
:101E00002DC08601D6CF843011F06401FACFC40111
:101E10000E940337B82E680184E0C80ED11CC801A7
:101E200003960E940337BB2039F1882329F1282F1C
:101E300030E021503109A29EA001A39E500D112433
:101E40008B2D90E00197840F951F0197D0F2AFE999
:101E5000BFE01197F1F700C00000F7CFCE01019667
:101E60000E944D32CECF00314FE51407A1F481E03E
:101E70000E942B160E942C1C80913A06877009F450
:101E80001FC6D70112968C91882309F419C682E0E7
:101E90000E94222A15C601315FE5150711F482E080
:101EA000E7CF6801F7E5DF1A2FEFC216D10411F072
:101EB00008F03FC068E576E08C2D0E946227892BF0
:101EC000C1F586E18C9DF0018D9DF00D1124EA5144
:101ED000FB4F86818130C9F4809158069091590654
:101EE000892B39F180915A0690915B06892B09F173
:101EF00080915C0690915D06892BD9F480915E06F5
:101F000090915F06892B49F014C0823091F4809142
:101F10005C0690915D06892B61F026E12C9DC00145
:101F20002D9D900D11248A519B4FFC01108A0E9417
:101F3000C023C80197558F3F910511F008F052C09A
:101F400020912001022E000C330B2817390714F4BE
:101F500080932001D70112962C91129736E1389F79
:101F60005001399FB00C1124F501EA51FB4F6F016C
:101F7000208B12969C918681992351F112870187BB
:101F80008F5F86830E944322D6011E969C938E9378
:101F90001D9780913E0617968C9317979091960502
:101FA0008091E304892B18968C931897ED91FC91FE
:101FB0001197309741F054966D917C915597C501DA
:101FC00084519B4F09951093E5040093E4040AC0E3
:101FD000882341F08189882329F0C50184519B4FD2
:101FE0000E9479238091B20580FF67C00E9443223E
:101FF0006C01D70112968C91882379F180911F0191
:1020000082FF06C040E0B60180E090E00E94182305
:1020100082E00E94F3290B31BCE51B0779F00C31FB
:10202000ECE51E0789F00A31FCE51F07B1F4809149
:102030001F01982F909590FB80F909C080911F0196
:10204000816080931F0180C080911F018E7F8093EB
:102050001F0182E00E94F32977C00832110538F48D
:102060000E311105B8F40430110578F426C0093397
:10207000110538F40D32110590F40B32110579F089
:102080001CC00436110559F018C08091B20584FDBA
:1020900014C009C08091B20583FD0FC004C08091B7
:1020A000B20582FD0AC0D70112968C91882309F4EB
:1020B000B5C180911F0180FD75C1033F5CE5150727
:1020C00041F190F4083D9CE51907E9F0093DACE5C4
:1020D0001A0789F1073DBCE51B07B1F506E221EEC1
:1020E00041EE67ED7CE52CC0053FECE51E07E9F00D
:1020F000B0F0063F2CE5120739F507E225EE46EE73
:1021000066EF7CE51DC007E225EE45EE68ED7CE557
:1021100017C006E221EE40EE63EF7CE511C007E256
:1021200025EE44EE64EF7CE50BC006E221EE42EEC4
:1021300065EF7CE505C008E221E045EE69ED7CE550
:10214000C7010E943F2598CED70112962C912223D9
:1021500009F46AC110923A040230BCE51B0708F486
:1021600063C10631ECE51E0730F0C8018A5F9C456B
:10217000099708F059C10E946D299093C905809371
:10218000C8050031FCE51F0709F4C3C008F041C0D1
:1021900008304CE5140709F49AC0F0F404308CE5DB
:1021A000180709F487C068F40230ACE51A0709F48F
:1021B00077C003301C4509F0E5C08091C8058260F6
:1021C00076C00630ECE51E0709F46EC008F07BC04F
:1021D0008091C80588606BC00C302CE5120709F4AB
:1021E00085C068F40A305CE5150709F474C008F08E
:1021F00079C00E9479168091C805806858C00E3059
:102200009CE5190709F476C008F07FC08091C805E5
:102210008BC00B3FBCE51B0709F44FC018F5033119
:10222000FCE51F0709F47DC078F401314CE5140783
:1022300009F473C002311C4509F0A4C00E9479164C
:102240008091C8058F7733C005318CE5180709F4F4
:1022500072C008F486C00A3F1C4509F093C0809103
:10226000C9053EC00F3FBCE51B0709F45FC058F429
:102270000D3FFCE51F0709F444C008F43FC08091FE
:10228000C90582602DC001304DE5140709F475C001
:1022900008F45DC002301D4509F074C060E06EC0F6
:1022A0008091C805816003C08091C80580618093DA
:1022B000C80568C08091C80511C08091C9058260B9
:1022C0008093C9055FC08091C8058062F0CF80917E
:1022D000C8058064ECCF8091C80588608460E7CF32
:1022E0008160EECF8091C8058E7FE1CF8091C805D7
:1022F0008D7FDDCF8091C805877FD9CF8091C905BB
:1023000018C08091C9058D7FDBCF8091C8058F7E75
:10231000CECF8091C8058F7DCACF8091C8058F7BB5
:10232000C6CF8091C805877F8B7FC1CF8091C905BB
:102330008D7F8E7FC5CF8091C80582FB222720F933
:1023400091E0922790FB82F990FB83F9B0CF8091C6
:10235000C905982F909591708E7F892B90FB81F9FC
:10236000AFCF0E9479168091C80587FB222720F9FC
:1023700091E0922790FB87F99ACF61E08EE090E0A0
:102380000E9411376091C8051091C90584E090E062
:102390000E941137612F82E290E00E9411370E9463
:1023A00079166ACD9091B20591FD04C02091E304A5
:1023B000211183CE95FF21C02091BB053091BC0532
:1023C000A601421B530B9A0196FD02C081FD15C068
:1023D000283C310590F42091B9053091BA050217D7
:1023E000130759F481FF05C08091960582608093A0
:1023F0009605802F0E9410173FCD1093BA050093C9
:10240000B905D092BC05C092BB0580911F018460C4
:1024100080931F0182E00E94222A2ECD40E0B60167
:10242000C8010E94182328CD0631BCE51B0709F01E
:102430004FC08091E304982F9A7A3091B10530FF14
:1024400004C0482F447409F090E031FF04C0482FC5
:10245000417109F090E032FF04C0482F487809F03C
:1024600090E033FF02C0827261F42223A1F081E088
:10247000911101C080E08093DB01992331F065E385
:1024800005C0222341F01092DB0169E28DEC95E05A
:102490000E94A0220BC08091DB01882311F065E32C
:1024A00001C069E28DEC95E00E9478220E949F2A8B
:1024B000E3CC00318FE5180711F481E006C001314B
:1024C0009FE5190709F035CD82E00E943716D2CC7E
:1024D000222389F10A359DE5190741F150F40115D0
:1024E000BCE51B07A9F00E3D1C4529F50E947E297D
:1024F000C3CC0B35FDE51F07D9F00C351D45D9F4CC
:102500008091C90582FB882780F991E0892711C055
:102510000E9479164FEF54E38CE0415050408040C8
:10252000E1F700C000000E94F121A6CC81E001C0CB
:1025300080E00E94012AF701868197810097B9F413
:10254000F701828100811181882349F0C8010E942E
:102550008E15D82E682FC8010E94FA1504C0C80134
:102560000E94CA15D82EB8018D2D0E94A1260E9466
:10257000D327182F092FD7011296BC9012971596C2
:10258000CC90C2943FE0C32280913A06877099F0C4
:10259000BB2089F0892F807F803421F080E2810F79
:1025A000883048F082E00E94222A80913A068770A3
:1025B000AA24A3948111A12C902E92942FE0922210
:1025C000892D90E08C30910508F029C2FC01EC596E
:1025D000FF4F0C946D37902F9F70802F807FD92EE6
:1025E00019F0D29490EFD922BB20B9F0DD2009F484
:1025F000F4C180E2810F883010F0111106C0809183
:10260000E304D82AD092E30405C080919605D82A25
:10261000D09296050E949F2AE0C1812F0E94B01699
:10262000DD2009F4FCC180E2810F883010F0111127
:1026300004C08D2D0E94FA2903C08D2D0E94F3291C
:102640000E949F2AECC1902F9F70802F807FD92EEF
:10265000803219F0D29480EFD822112321F011306A
:1026600009F44DC058C0BB2071F1CC2031F1B1E06C
:10267000CB1213C08091C90582FDD1C180913E0665
:10268000D82AD81609F4CBC10E94432290933D0664
:1026900080933C06D0923E06C2C18091B305823041
:1026A00060F0C8120AC00E94E82980913706D81647
:1026B00009F44FC0D09237064CC080913E068D2958
:1026C0000E94A616ACC1CC2079F08091B305E1E060
:1026D000CE1210C0823008F4A2C18091E3048D2193
:1026E00009F49DC10E943F2A0E94E8298D2D0E9475
:1026F0009F1695C18230C0F3C812F6CF90C1BB209F
:1027000029F0F5E0FC1508F48AC123C024E02C155B
:1027100008F485C1EBCFBB20F1F0CC20D1F020E054
:10272000D7014C9111965C91119712966C9112976A
:1027300013967C91139714968C910E94003380918C
:10274000B40581FD4AC1F701858180FF46C18F70C4
:1027500085838D2DB5CFC1104BC1C8CF802F8695F5
:102760008695837019F0813061F059C1BB2021F04A
:10277000812F902F937002C080E090E00E94EB22A6
:102780004EC1BB2021F0812F902F937002C080E0BA
:1027900090E00E94D52243C1812FBB2029F00E94E6
:1027A000A02F0E940F3202C00E94932E0E940F326F
:1027B00036C1802F8370A9F5B11031C1412F4295E8
:1027C00046954770440F440F212F2F7030E0C90108
:1027D000042E01C0880F0A94EAF714FF08C02FE006
:1027E00030E001C0220F4A95EAF7209501C020E0B1
:1027F000302F369536953370323051F070F4409169
:102800004F06313019F0822B842308C0842B05C079
:10281000282B80914F06822701C0822B0E944216EE
:10282000FEC0BB2019F0802F817001C086958823DF
:1028300009F4F5C0412F429546954770440F440F67
:10284000212F2F7030E0C901042E01C0880F0A9497
:10285000EAF714FF08C02FE030E001C0220F4A95CC
:10286000EAF7209501C020E0302F36953695337079
:10287000323051F070F440912202313019F0822B45
:10288000842353C0842B05C0282B809122028227E9
:102890004CC0822B4AC0F02FFF70DF2EBB2029F0E6
:1028A0008F2F0E943716812F0BCF812F0E949F16EA
:1028B0008D2DB1C0123F41F128F4103F41F0113F7E
:1028C000E9F087C0133F31F1143F91F182C0BB2082
:1028D00029F024E02C1508F4A2C004C045E04C15F2
:1028E00008F49DC0202F2F7181E090E001C0880F77
:1028F0002A95EAF790912202892717C0802F8F71BD
:10290000BB2009F488C06FC0802F8F71BB2009F4F1
:102910006AC081C0BB2041F081E0902F9F7101C04F
:10292000880F9A95EAF701C080E00E94271677C0C9
:102930009091B3059230B8F1BB20F1F08091370649
:102940000E94FA2980913A068770843039F40E94F7
:102950001B2A802F8F710E942B1660C08091B305B7
:10296000C81608F05BC0502F5F71D52E852F0E94CE
:10297000371663E08D2D10C02091E3048091370657
:10298000822B8093E304C91650F00E941B2A0E94F8
:102990003F2A64E0802F8F710E946F2A3FC081E040
:1029A0000E94222A3BC0BB2051F0802F8F71D82E6D
:1029B0000E94371663E08D2D0E946F2A30C081E09F
:1029C0000E94222A91E09C1550F582E00E94222A62
:1029D00026C0BB2059F0CC2021F0812F0E94101777
:1029E0001EC0802F8F710E94371619C0CC2089F02D
:1029F000193329F48091B7059091B80504C08091EE
:102A0000B5059091B6050E940D23812F0E94B01646
:102A100006C0802F8F710E942B1601C0A12C88EF59
:102A2000890D843010F40E940123812F902F0E9481
:102A30004616811105C01092DD011092DC0125C0FF
:102A4000BB2019F0C110F7CF20C0C110F4CF20E097
:102A5000D7014C9111965C91119712966C91129737
:102A600013967C91139714968C910E940033809159
:102A7000B40583FFE0CF8091DC019091DD010297E6
:102A8000D1F6812F0E94D417D6CFAA20A9F0809129
:102A90003A0680FD11C0F7011282859585958595CE
:102AA0000E943716C7010E94490E80913A0685950B
:102AB000859585950E942B1660E0C7010E942933F9
:102AC0000F900F900F900F90DF91CF911F910F916A
:102AD000FF90EF90DF90CF90BF90AF909F908F903E
:102AE000089580E090E00E94EB2280E090E00E9458
:102AF000D5221092960510923B060E949F2AE9E487
:102B0000F6E086E0DF011D928A95E9F71092430610
:102B100010924206109244060C940F32CF92DF922C
:102B2000FF920F931F93CF93DF936C0100912202CA
:102B300080914F06082BC7E0D0E010E0C8010C2EB2
:102B400002C0959587950A94E2F780FD04C021970D
:102B5000A8F7F12C09C0FC2EB6018C2F0E94A126EB
:102B60000E94D327019799F38F2DDF91CF911F9169
:102B70000F91FF90DF90CF900895CF93DF93EC01FA
:102B80000E948E15BE010E94A1260E94D327DF91CC
:102B9000CF9108959E3F61F12BE0929F800D11240B
:102BA000682F669566956695982F977083E0689F65
:102BB000B001112440E050E080E0FB01E40FF51F7C
:102BC000E252FE4F208130E0092E02C03695279553
:102BD0000A94E2F721703327042E01C0220F0A94D1
:102BE000EAF7822B4F5F5F4F4330510531F708956D
:102BF00080E008959E3F51F12BE0929F800D1124BB
:102C0000E82FE695E695E695877051E001C0550FEF
:102C10008A95EAF783E0E89FF0011124E252FE4F23
:102C200020E030E070E04081CB01022E02C096959A
:102C300087950A94E2F781708195842785238427FC
:102C400081932F5F3F4F2330310569F708958093BB
:102C500022020C94711521E030E001C0220F8A9508
:102C6000EAF720958091220282230C94271621E016
:102C700030E001C0220F8A95EAF780912202822B70
:102C80000C94271680934F060C947115E92FE2954A
:102C9000EF704E2F50E0FA013297EE30F105B0F4AC
:102CA000E059FF4F0C946D37803F91F018F4883E47
:102CB00068F40EC0843F51F40BC0883E48F0813F59
:102CC00029F406C093FB882780F9089580E00895D1
:102CD00081E00895FC0186819781009719F00E9498
:102CE000D32704C0808191810E94BD150E944616A1
:102CF00008951092E30480911101882331F08091AE
:102D0000C80587FF02C08EE101C086E0EFECF5E068
:102D1000DF011D928A95E9F70C947115882321F043
:102D20000E94F3290C949F2A0895882339F09091EA
:102D30009605892B809396050C949F2A08958823E5
:102D400021F00E94FA290C949F2A0895882339F0D3
:102D50009091E304892B8093E3040C949F2A0895B7
:102D6000882309F45CC0823869F40E94012381FF42
:102D700056C069E38DEC95E00E94A0220E949F2A34
:102D800069E30EC0833891F40E94012380FF47C09D
:102D900063E58DEC95E00E94A0220E949F2A63E5E6
:102DA0008DEC95E00E9478220C949F2A843869F477
:102DB0000E94012382FF33C067E48DEC95E00E94FE
:102DC000A0220E949F2A67E4EBCF9CEF980F913AD4
:102DD00010F4682FE5CF90E2980F983050F4877088
:102DE00091E001C0990F8A95EAF7892F0E94FA298C
:102DF000DBCF9BE5980F933020F480E090E00C94BB
:102E0000EB2298E5980F973120F480E090E00C9445
:102E1000D522803F20F00E94932E0C940F3208950B
:102E2000CF93882309F4BEC0C82F8238B1F40E9422
:102E3000012381FDB7C069E38DEC95E00E94A022DB
:102E40000E949F2A2FEF81EE94E021508040904015
:102E5000E1F700C0000069E317C08338E1F40E9485
:102E6000012380FD9FC063E58DEC95E00E94A022C8
:102E70000E949F2A2FEF81EE94E0215080409040E5
:102E8000E1F700C0000063E58DEC95E00E94782238
:102E9000CF910C949F2A8438B1F40E94012382FDC3
:102EA00081C067E48DEC95E00E94A0220E949F2AD9
:102EB0002FEF81EE94E0215080409040E1F700C078
:102EC000000067E4E1CF8CEF8C0F813AC0F5809170
:102ED00011018823E1F08091C80587FF18C0EC2F0D
:102EE000E695E695E695F0E0E353FA4F8281282FC8
:102EF00030E04C2F477081E090E002C0880F991FAE
:102F00004A95E2F782239323892B61F412C0EFECF8
:102F1000F5E085ED95E02191C21721F08E179F070E
:102F2000D1F707C06C2F8DEC95E00E9478220E94AB
:102F30009F2A6C2F8DEC95E00E94A022A9CF80E201
:102F40008C0F883068F4C77081E090E001C0880F72
:102F5000CA95EAF79091E304892B8093E30498CF14
:102F6000EBE5EC0FE33040F4F0E0E05AFE4F8081F7
:102F700090E0CF910C94EB22E8E5EC0FE73150F4B0
:102F8000F0E0EE0FFF1FED59FE4F80819181CF9150
:102F90000C94D522C03F30F08C2F0E94A02FCF91EF
:102FA0000C940F32CF9108951F93CF93DF93182F76
:102FB000893329F4C091B705D091B80504C0C091F8
:102FC000B505D091B605812F0E941017209741F0CA
:102FD0008FE99FE00197F1F700C000002197F6CF3D
:102FE000812FDF91CF911F910C94B0164F925F9279
:102FF0006F927F928F929F92AF92BF92CF92DF9209
:10300000EF92FF920F931F93CF93DF93CDB7DEB76D
:1030100065970FB6F894DEBF0FBECDBF8C0185E07B
:10302000F801DE01519601900D928A95E1F7D801E1
:103030001296EC908DEEA82E85E0B82E8090F005CB
:103040009090F105A4016091EE058091ED050E943C
:10305000E523F82E8111FDC1F801C380D480409092
:10306000EF05C601881999094C01442009F47BC178
:103070005080618060E0C5010E9429338091AF05D6
:103080009091B0057090F2058816990608F01EC15F
:103090004091F0055091F105B090ED05A090EE053E
:1030A000872D807F6A2D09F0A1C08B2D0E94E5231A
:1030B000811124C0D80111968C9111978A111EC0DC
:1030C0008C918B111BC02091F3053091F40516965D
:1030D0008D919C9117972817390781F4E1100EC044
:1030E000872D8F7080618093F2058DEE95E00E94B0
:1030F000490E8091F205F8018583C7C160E08DEE2D
:1031000095E00E9429338091AF059091B005843FEE
:10311000914050F0A601662D852D0E94E523811176
:103120000DC081E08E250CC060E08DEE95E00E9420
:1031300029338091B40580FDEDCF14C080E090E08C
:1031400080FF10C04E2D662D852D0E94452A8823B4
:1031500049F08DEE95E00E94490EEDEEF5E088E035
:10316000DF0173C1A601662D852D0E94E523811123
:1031700003C081E08E2502C080E090E0B82FB170DE
:10318000CB2E80FF2AC04E2D662D852D0E94452A0C
:10319000D82E811122C0598A6A8A89899A890E9407
:1031A000BD15292F22952F70223018F0243078F485
:1031B00005C09F7049F0811107C00DC09F7021F0BC
:1031C000F8019581907F39F0805E883020F0C80149
:1031D0000E94490EDC2CFD2C58C1EE2009F454C18C
:1031E0008091F20581608093F2054FC18B2D0E9482
:1031F000E523811124C0D80111968C9111978A1171
:103200001EC08C918B111BC02091F3053091F405E9
:1032100016968D919C9117972817390781F4E11024
:103220000EC015967C92C8010E94490E88E0F801F4
:10323000ADEEB5E001900D928A95E1F774C0C8013A
:103240000E946A168823E1F1EE20D1F12091F20567
:10325000822F82958F7090E00297A4F08091ED0507
:103260009091EE059A8789871B86DD86CC862E870E
:103270008091F3059091F405988B8F87CE01099684
:103280000E94490E88E0F801ADEEB5E001900D9284
:103290008A95E1F70E946B2C16C0F090ED05909096
:1032A000EE054091F0055091F105692D8F2D0E949A
:1032B000E5238823C1F0C8010E946A16811135C038
:1032C000C8010E94490EFF24F394DFC0872D807F40
:1032D00021F78DEE95E00E94490E88E0F5011192EC
:1032E0008A95E9F7D2C0D80111968C91119789116E
:1032F000E2CF8C918F11DFCF2091F3053091F4054F
:1033000016968D919C91179728173907A1F6E11011
:10331000D2CF15967C92C8010E94490E88E0F50133
:1033200011928A95E9F7F42CB0C0EE2049F2209171
:10333000F205822F82958F7090E002970CF4A2CF55
:103340008091ED059091EE059A8389831B82DD8241
:10335000CC822E838091F3059091F40598878F831A
:10336000CE0101968DCF60E08DEE95E00E9429336D
:103370008091AF059091B0058816990608F063C05A
:10338000FE2CEE2009F49CCFE090ED05D090EE05E8
:103390004091F0055091F1056D2D8E2D0E94E52391
:1033A000811143C0D80111968C9111978D113DC0A8
:1033B0008C918E113AC02091F3053091F405169648
:1033C0008D919C9117972817390779F560E08DEE5C
:1033D00095E00E9429338091B40582FD1DC0809143
:1033E000F20580FD19C082958F70482F50E041157D
:1033F000510591F02091F205F80125834F305105D8
:1034000041F08F5F982F9295907F822F8F70892B3C
:103410008583C8010E94490E88E0F801ADEEB5E051
:1034200001900D928A95E1F730C0C8010E946A169A
:10343000811128CF8091F20581608093F205C80147
:103440000E94490E22C088E0D5011D928A95E9F7B5
:103450001CC0EE2009F434CFC8010E946A16F82E71
:10346000882309F42DCF88E0F801ADEEB5E0019096
:103470000D928A95E1F78091ED059091EE050E94FD
:10348000BD150E946B2C01C0F12C8F2D65960FB6D7
:10349000F894DEBF0FBECDBFDF91CF911F910F918A
:1034A000FF90EF90DF90CF90BF90AF909F908F9064
:1034B0007F906F905F904F900895EF92FF920F93DF
:1034C0001F93CF93DF93CDB7DEB760970FB6F89415
:1034D000DEBF0FBECDBF29873A874B875C876D87DC
:1034E0007E878F87988BCE0109960E94F6178111EF
:1034F0004AC088E0FE013996DE01119601900D92D6
:103500008A95E1F7E984FA840C851D85A8016F2D61
:103510008E2D0E94E523811136C0A091F505B0E003
:10352000CD010196877099272091360630E08217E9
:10353000930781F1E982FA821D830C8393E0AA0F3D
:10354000BB1F9A95E1F7AA50BA4F98E0FE01319659
:1035500001900D929A95E1F78093F5050E94652AF6
:1035600012C028E0829FC00111248A509A4F0E9405
:10357000F6178823E1F08091360690E00196877077
:10358000992780933606809136069091F505891328
:10359000E8CF0DC00E9479161092F50510923606FC
:1035A000EDEEF5E088E0DF011D928A95E9F760967F
:1035B0000FB6F894DEBF0FBECDBFDF91CF911F9144
:1035C0000F91FF90EF90089580911A0287FF11C02C
:1035D0008091E80082FD05C0809118028111F8CF2A
:1035E00011C08091E8008B770BC08091180288236E
:1035F00049F08091E80080FFF8CF8091E8008E7755
:103600008093E8000895982F973068F59093E9002B
:10361000981739F07091EC002091ED005091F00076
:1036200003C0242F762F50E021FD02C09F5FECCF16
:103630003091EB003E7F3093EB003091ED003D7F09
:103640003093ED003091EB0031603093EB007093DC
:10365000EC002093ED005093F0002091EE0027FD48
:10366000E5CF80E008958F708093E90081E00895B0
:1036700020912002309121022617370748F061156A
:10368000710539F42091E8002E772093E80001C0FD
:10369000B901FC0120E06115710579F180911802F2
:1036A0008823F1F18530F1F18091E80083FD3CC081
:1036B0008091E80082FD2EC08091E80080FFEBCF72
:1036C0002091F3008091F20090E0922B611571053A
:1036D00051F08830910538F421912093F100615028
:1036E00071090196F3CF21E0089709F020E080915D
:1036F000E8008E778093E800CECF2111CFCF0AC0AB
:1037000080911802882361F0853061F08091E80093
:1037100083FD0AC08091E80082FFF2CF80E0089527
:1037200082E0089583E0089581E00895BC0184E07B
:103730000C94C721BC0183E00C94C721CF93DF9385
:103740008A3011F481E003C08D3029F480E0DF91EC
:10375000CF910C94DC25682F80912C0490912D043E
:1037600026E0FC01A6E2B4E001900D922A95E1F773
:10377000603E30F026E0FC0111922A95E9F70AC07C
:10378000F6E06F9FB00111246D547B4F46E050E08E
:103790000E94EA36C0912C04D0912D0446E050E0FE
:1037A000BE0186E294E00E947A37892B49F19E019E
:1037B00026523240A90185E0569547958A95E1F752
:1037C00081E090E0BC0102C0660F771F4A95E2F7E6
:1037D0004091240250912502462B572B2B5F3F4FDF
:1037E00065E0369527956A95E1F702C0880F991F25
:1037F0002A95E2F7842B952B90932502809324023F
:103800009E012052324040912302642F70E0C90192
:103810000E94D636481B463010F4240F311D211566
:1038200082E0380710F020E030E02A5D3D4F309311
:103830002D0420932C04DF91CF910895CF93DF9333
:10384000EC01FE018491882321F00E949E1B2196A9
:10385000F8CFDF91CF91089580912202982F967032
:10386000963011F4886001C0877F0C942716EF9280
:10387000FF920F931F93CF93DF93EC017B0164E6DC
:1038800070E088E70E94CD358C01EC0EFD1ECE1550
:10389000DF0561F017FD0AC0FE01849164E670E067
:1038A0000E944E368C012196892B89F30E94D236D4
:1038B000C801DF91CF911F910F91FF90EF90089574
:1038C0001F93CF93DF93CDB7DEB7AA970FB6F894C7
:1038D000DEBF0FBECDBFEAE1F2E08091F10081933F
:1038E00042E0E232F407C9F780911B02833009F409
:1038F00062C030F4813071F0823009F49CC0B3C0F2
:103900008A3009F488C08B3009F46DC0893009F021
:10391000AAC020C080911A02813A09F0A4C0809107
:10392000E800877F8093E80080911E0290911F023B
:10393000892B21F460E286EF91E003C060E080E033
:1039400090E070E00E94381B8091E8008B778093B4
:10395000E80089C080911A02813209F084C0809108
:103960001E0290911F02009719F0029709F07BC088
:103970008091E800877F8093E8008091E80082FDD5
:1039800005C0809118028111F8CF6DC02091F3001D
:103990008091F20090E0922B029729F48091F1003F
:1039A0008B7F813021F48091F1008093F50180912B
:1039B000E8008B7754C080911A02813A09F053C015
:1039C00080911E0290911F02892B09F04CC08091BA
:1039D000E800877F8093E8008091E80080FFFCCFBB
:1039E0008091110137C080911A028132E1F58091F6
:1039F0001E0290911F02892BB1F58091E800877F0C
:103A00008093E8000E94E41A80911C0280931101C7
:103A10000E94791628C080911A02813221F5809186
:103A2000E800877F8093E8000E94E41A80911D02DD
:103A30008093F40118C080911A02813AA1F4809118
:103A4000E800877F8093E8008091E80080FFFCCF4A
:103A50008091F4018093F1008091E8008E7780934B
:103A6000E8000E94E41A8091E80083FFE9C1809198
:103A70001A0290911B02492F50E04A30510508F07C
:103A8000DFC1FA01E258FF4F0C946D37803821F006
:103A9000823809F0D5C108C08091160290911702B2
:103AA000992389F082600FC080911E028F70873049
:103AB00008F0C6C18093E9008091EB0085FB882760
:103AC00080F91092E9009091E800977F9093E800C8
:103AD0008093F1001092F1007CC1282F2D7F09F016
:103AE000AFC1882319F0823061F0AAC180911C0215
:103AF000813009F0A5C1933009F080E0809317026E
:103B00002EC080911C0281112AC080911E028F70EC
:103B10002FEF280F263008F093C18093E900209101
:103B2000EB0020FF1CC0933021F48091EB008062F9
:103B300014C09091EB0090619093EB0021E030E095
:103B4000A90102C0440F551F8A95E2F74093EA008D
:103B50001092EA008091EB0088608093EB00109255
:103B6000E9008091E800877F8093E8000E94E41AD2
:103B700067C1811165C110911C021F778091E3001C
:103B80008078812B8093E3008091E800877F809389
:103B9000E8000E94E41A8091E80080FFFCCF809149
:103BA000E30080688093E300111102C082E001C04D
:103BB00083E08093180244C18058823008F040C1ED
:103BC00020911C0230911D022C3D53E0350779F500
:103BD00083E08A838AE289834FB7F894DE011396E3
:103BE00020E03EE051E2E32FF0E050935700E491F3
:103BF00020FF03C0E295EF703F5FEF708E2F90E0E3
:103C0000EA3010F0C79601C0C0968D939D932F5F48
:103C1000243149F74FBF8091E800877F8093E80007
:103C20006AE270E0CE0101960E94381BC0C080910C
:103C30001E0290911F02432F552743305105B1F0CA
:103C400068F44130510509F40AC14230510509F0C8
:103C5000F7C08BE590E0E8EFF3E057C04132510543
:103C600089F14232510509F43CC0EAC0C9019927E3
:103C700081309105B9F070F082309105D9F0039749
:103C800009F0DEC0E5E6F4E0E4918E2F90E0E5E691
:103C9000F4E038C0EFEAF4E0E4918E2F90E0EFEA30
:103CA000F4E030C0E7E9F4E0E4918E2F90E0E7E93A
:103CB000F4E028C0E3E8F4E0E4918E2F90E0E3E83C
:103CC000F4E020C08330910508F0BAC0880F991F36
:103CD000FC01E65AFE4F0190F081E02D89E090E072
:103CE00014C08330910508F0ABC0FC01EE0FFF1F3C
:103CF000EC5AFE4F0190F081E02DDC01AF5ABE4F2F
:103D00008C9190E0009709F49BC02091E800277FF8
:103D10002093E800209120023091210228173907D2
:103D200008F4C90140E0009789F12091180222238C
:103D300009F43DC02530D9F12091E80023FD37C0BA
:103D40002091E80022FD2FC02091E80020FFEBCF5A
:103D50004091F3002091F20030E0342B009759F0AD
:103D60002830310540F444914093F1003196019799
:103D70002F5F3F4FF3CF41E02830310509F040E09D
:103D80002091E8002E772093E800CDCF4111CDCFD0
:103D90000AC080911802882351F0853041F080914B
:103DA000E80083FD04C08091E80082FFF2CF80919B
:103DB000E8008B778093E80043C0803809F040C06A
:103DC0008091E800877F8093E800809119028093BA
:103DD000F1008091E8008E77C7CE811131C08091CB
:103DE0001C0290911D029927029754F58091E800DA
:103DF000877F8093E80010911C02109319020E94A3
:103E0000E41A111106C08091E30087FD02C081E031
:103E100001C084E08093180242E061EC81E00E94DE
:103E2000031B42E261EC84E00E94031B42E261EC6E
:103E300082E00E94031B42E260EC83E00E94031BCD
:103E40008091E80083FF10C08091E800877F809315
:103E5000E8008091EB0080628093EB0005C082E176
:103E600090E0E3E5F4E051CFAA960FB6F894DEBFF8
:103E70000FBECDBFDF91CF911F9108951F920F927A
:103E80000FB60F9211242F933F934F935F936F932D
:103E90007F938F939F93AF93BF93CF93DF93EF93D2
:103EA000FF93C091E900CF708091EC00D82FD170C2
:103EB00080FDD0E81092E9008091F000877F809328
:103EC000F00078940E94601C1092E9008091F0004C
:103ED00088608093F000CD2BCF70C093E900FF91F4
:103EE000EF91DF91CF91BF91AF919F918F917F9192
:103EF0006F915F914F913F912F910F900FBE0F9057
:103F00001F901895E8EDF0E080818E7F80831092FD
:103F1000E2001092DA001092E100A0EEB0E08C9185
:103F200081608C9380818F77808319BCA7EDB0E08E
:103F30008C918E7F8C9380818F7E80831092F30191
:103F40000895CF92DF92EF92FF920F931F93CF933A
:103F5000DF93C8EDD0E088818F7E8883E7EDF0E0C5
:103F600080818160808384E082BF81E08093F3015F
:103F700088818E7F888302EE10E0F8011082109213
:103F8000DA0081EEC82ED12CF601108288818F775D
:103F9000888388818068888388818F7D888319BC25
:103FA0001092180210921902109217021092160223
:103FB00090EEE92EF12CF70180818B7F8083888140
:103FC0008160888342E060E080E00E94031BF6018C
:103FD00080818E7F8083F8018081816080838081F1
:103FE00088608083F70180818E7F808388818061F3
:103FF0008883DF91CF911F910F91FF90EF90DF9019
:10400000CF9008951F920F920FB60F9211242F9305
:104010003F934F935F936F937F938F939F93AF9350
:10402000BF93EF93FF938091E10082FF09C08091DD
:10403000E20082FF05C08091E1008B7F8093E10068
:104040008091DA0080FF2AC08091D80080FF26C0CE
:104050008091DA008E7F8093DA008091D90080FF12
:1040600018C080E189BD82E189BD09B400FEFDCFA1
:1040700081E0809318028091F30181110FC00E94AA
:10408000821F0E94A11F8091E20084608093E20061
:1040900005C019BC109218021092F3018091E10042
:1040A00080FF17C08091E20080FF13C08091E20082
:1040B0008E7F8093E2008091E20080618093E20035
:1040C0008091D80080628093D80019BC85E08093ED
:1040D00018028091E10084FF2EC08091E20084FFED
:1040E0002AC080E189BD82E189BD09B400FEFDCF0F
:1040F0008091D8008F7D8093D8008091E1008F7EE1
:104100008093E1008091E2008F7E8093E2008091B5
:10411000E20081608093E20080911902882311F00F
:1041200084E007C08091E30087FD02C081E001C008
:1041300083E0809318028091E10083FF27C0809183
:10414000E20083FF23C08091E100877F8093E1003C
:1041500082E080931802109219028091E1008E7F14
:104160008093E1008091E2008E7F8093E200809155
:10417000E20080618093E20042E060E080E00E9423
:10418000031B8091F00088608093F000FF91EF9115
:10419000BF91AF919F918F917F916F915F914F915F
:1041A0003F912F910F900FBE0F901F901895209167
:1041B000E4003091E50095E64091EC00842F817099
:1041C00040FF23C08091E80080FD1DC0809118024F
:1041D000882399F0853099F08091EB0085FD11C01E
:1041E0004091E4005091E5002417350729F39150E0
:1041F00011F09A01E1CF84E0089582E0089583E010
:10420000089581E0089580E008954091E80042FF1C
:10421000DDCF0895EF92FF920F931F93CF93DF931B
:104220007C018B010E94D720811119C0E701011583
:104230001105A1F08091E80085FD0AC08091E80099
:104240008E778093E8000E94D720882381F307C0EF
:1042500089918093F10001501109E9CF80E0DF914D
:10426000CF911F910F91FF90EF9008958091F501EC
:104270000895E7E9F5E0848195812AE030E0B9010D
:104280000E94D63660931B01868180931A01828535
:104290008093190184858093180186859785B901DB
:1042A0000E94D63660931701808980931601828917
:1042B0008093150184898093140108958091970556
:1042C0009091980590931E0180931D01089524E01C
:1042D0002093E9002FEF3091E800215035FD06C012
:1042E00035ED3A95F1F700002111F5CF2091E80066
:1042F00025FF0BC040E050E066E070E00E940A211C
:104300008091E8008E778093E8000895CF93DF9343
:1043100020911101222339F02091C80527FF03C005
:1043200060E224E002C068E021E02093E9002FEF82
:104330003091E800215035FD06C035ED3A95F1F792
:1043400000002111F5CF2091E80025FF1DC0EC01F0
:1043500080911101811105C040E050E068E070E0FB
:1043600003C070E040E050E0CE010E940A2180913D
:10437000E8008E778093E80080E2FE01A6EFB1E0CE
:1043800001900D928A95E1F7DF91CF910895909178
:104390001802943029F58093CA057093CC05609378
:1043A000CB059093E9008FEF9091E800815095FD47
:1043B00006C095ED9A95F1F700008111F5CF809137
:1043C000E80085FF0DC040E050E063E070E08AEC5B
:1043D00095E00E940A218091E8008E778093E800A2
:1043E000089587E797E790930108809300089AE083
:1043F00088E10FB6F894A895809360000FBE909363
:104400006000FFCF78941F920F920FB60F92112485
:104410008F939F93AF93BF938091C4059091C505EF
:10442000A091C605B091C7050196A11DB11D80934D
:10443000C4059093C505A093C605B093C705BF9169
:10444000AF919F918F910F900FBE0F901F90189575
:104450009C014FB7F8948091C4059091C505A09137
:10446000C605B091C7054FBF821B930B08952FB7A8
:10447000F8946091C4057091C5058091C60590912E
:10448000C7052FBF08952FB7F8948091C405909168
:10449000C505A091C605B091C7052FBF08951F920D
:1044A0000F920FB60F9211248F939F93AF93BF93E8
:1044B0008091C305811113C08091C4059091C505F9
:1044C000A091C605B091C7054196A11DB11D80936D
:1044D000C4059093C505A093C605B093C705BF91C9
:1044E000AF919F918F910F900FBE0F901F901895D5
:1044F000209111012223C9F02091C80527FF15C082
:10450000262F2695269526952E31C8F4FC01E20F1C
:10451000F11D677081E090E001C0880F6A95EAF7AD
:1045200080959281892382830895FC0106962281D9
:10453000621301C012823196E817F907C1F7089596
:10454000209111012223C1F02091C80527FF14C03A
:10455000262F2695269526952E3130F5FC01E20F63
:10456000F11D677081E090E001C0880F6A95EAF75D
:104570009281892B82830895FC0132962FEF30E0DF
:104580004191641789F02F3F19F4411101C0232F85
:104590003F5F3630A9F72F3F39F0FC01E20FF11DE4
:1045A00027FDFA956283089508952091C105309101
:1045B000C2052817390771F09093C2058093C10591
:1045C000E091BF05F091C005309721F00084F1859E
:1045D000E02D099408952091BD053091BE0528175E
:1045E000390771F09093BE058093BD05E091BF053A
:1045F000F091C005309721F00680F781E02D0994F5
:104600000895E091BF05F091C005309721F0019029
:10461000F081E02D099480E00895009741F0EFE9E2
:10462000FFE03197F1F700C000000197F6CF089541
:10463000FF920F931F93CF93DF938C01EB01F42E26
:1046400080911F0182FF3CC08B7F80931F0180916E
:10465000BB059091BC059B01281B390B80911D0166
:1046600090911E012817390750F48091B9050E94D6
:10467000101780911F018D7F80931F0116C08091BC
:1046800096058260809396058091B9050E94101767
:1046900080911F01826080931F018091B20585FF88
:1046A00004C086FD02C0F1101EC08091B505909136
:1046B000B6050E940D238091B9050E94B0160AC06C
:1046C000802F0E94B0168091B9059091BA05081705
:1046D000190719F482E00E94F3290E949F2AD093BF
:1046E000BC05C093BB05DF91CF911F910F91FF9047
:1046F0000895EF92FF920F931F93CF93DF93FC01E6
:104700002285211136C0EC01E380F480F7E5FF1A21
:1047100026E12E9DC0012F9D900D1124DC01AA5190
:10472000BB4F1496ED91FC91159784519B4F309798
:1047300029F054966D917C915597099586E18E9D4F
:1047400080018F9D100D11240A511B4FF8018781A4
:104750000E94FA29F80180850E94F3290E949F2A6D
:10476000188219861B861E821D821092E504109203
:10477000E404DF91CF911F910F91FF90EF90089586
:10478000CF93DF93FC01218921111CC0EC0181E052
:10479000818B9091E3048781892B8093E30490912E
:1047A00096058085892B809396050E949F2AEA8131
:1047B000FB81CE010696309729F06C897D89DF91C7
:1047C000CF910994DF91CF910895452B41F06F3F30
:1047D00041F491E08F3F09F090E0892F03C081E020
:1047E00001C080E081700895BC014091DF04809198
:1047F000E004942F981729F1292F30E0F901EE0FEA
:10480000FF1FE952FB4F0190F081E02DE617F707FB
:1048100099F487E0869FF001879FF00D1124E156FF
:10482000FB4F81E0848394130CC02F5F3F4F2370B4
:1048300033272093DF0408952F5F3F4F922F93700B
:10484000D9CF0895EF92FF920F931F93CF93DF93E9
:1048500080913E048823F1F100913D048CE0F82E14
:1048600080913E04081790F5EE24E394E00EE09268
:104870003D0410E0F09EE001F19ED00D1124C15CDA
:10488000DB4F4B815C81698188810E94E523811126
:104890001BC08E819F81892B21F488859985019683
:1048A00051F4288139814A815B816C817D818E81BF
:1048B0009F810E945D1AF09EF001F19EF00D11247F
:1048C000E15CFB4F148213820E2DCACF10923E047E
:1048D00010923D04DF91CF911F910F91FF90EF90C7
:1048E000089510923C0410923B04EFE9F4E08581B6
:1048F000811102C014821682379684E0E73DF807E2
:10490000B1F708951092E2041092E10410921C0194
:104910008091E0048093DF040E9471240C9422248F
:104920003F924F925F926F927F928F929F92AF923F
:10493000BF92CF92DF92EF92FF920F931F93CF938C
:10494000DF93C091DF0497E0892E01E010E02CE0B6
:10495000322E3EEF932E442443948091E004C817F6
:1049600009F478C0D0E0FE01EE0FFF1FE952FB4FC3
:1049700080819181889ED001899EB00D1124A1561D
:10498000BB4F14962C911497211161C050903E0496
:10499000EFE3F4E020E030E0712C5D01251508F034
:1049A00054C0E284F384D501CD90DC906FEF7FEFAB
:1049B000612C462D50E0DA01AA0FBB1FAC0DBD1DC6
:1049C0000D90BC91A02D109731F0EA16FB0609F46A
:1049D000BA016394EECF6F3FBFEF7B0791F1D8012F
:1049E00002C0AA0FBB1F6A95E2F77A2AB80102C07B
:1049F000660F771F6A94E2F7AB0141505109672DAA
:104A000070E046175707D9F4329EF001339EF00D3F
:104A10001124E15CFB4F889ED001899EB00D1124CA
:104A2000A156BB4F12962D913C9113973783268345
:104A3000908291829187808715964C9206C014824D
:104A400013822F5F3F4F3C96A9CF0E94F4232196FB
:104A5000C37083CF0E942224DF91CF911F910F91C9
:104A6000FF90EF90DF90CF90BF90AF909F908F908E
:104A70007F906F905F904F903F900C9471240F93B4
:104A80001F93CF93DF93C42FD22FFC018281882301
:104A9000C9F040933A040E944322909339048093D2
:104AA000380480E28C0F883008F05BC0C77081E06A
:104AB00001C0880FCA95EAF7DF91CF911F910F913E
:104AC0000C94A61680913A04481334C0809138049F
:104AD000909139040E9428222091AF053091B005B1
:104AE0008217930738F510E21D0FCD17B9F080E259
:104AF0008C0F883040F4C77081E001C0880FCA95E0
:104B0000EAF70E949F16183028F581E09D2F9770D4
:104B100001C0880F9A95EAF70E94A616802F0E947E
:104B2000D4171830F0F4D77081E001C0880FDA95FF
:104B3000EAF70AC080E28C0F883098F4C77081E0F1
:104B400001C0880FCA95EAF7DF91CF911F910F91AD
:104B50000C949F16802FDF91CF911F910F910C9491
:104B6000D417DF91CF911F910F9108958091370451
:104B70008823F9F00E943722DC01CB01805A95414D
:104B8000AF4FBF4F8093320490933304A09334040B
:104B9000B09335048091360481110BC062E070E05F
:104BA00087E69BE00E94371C892B19F481E08093F3
:104BB0003604809136040895CF93E82F20912C0479
:104BC00030912D042652324040912302642F70E030
:104BD000C9010E94D636481B842FEE2351F066E0AF
:104BE0000E944D37C82FC150A8F080E20E949E1B42
:104BF000FACFA901480F511D4115524018F080E02D
:104C000020E030E0280F311D2A5D3D4F30932D0408
:104C100020932C04CF9108950F931F93CF93DF938C
:104C200007E915E0CBE0D1E0CE010E940337F8019F
:104C300081938F012196CD32F1E0DF07A9F7C0E023
:104C4000D0E0FE01EB52F54F85919491009711F061
:104C5000FC0109952896C839D10599F7DF91CF91C4
:104C60001F910F9108950F931F93CF93DF9307E93F
:104C700015E0CBE0D1E0CE010E940337F80161914D
:104C80008F01681719F0CE010E9411372196CD329D
:104C9000F1E0DF0781F7DF91CF911F910F91089528
:104CA000E7E9F5E0128E138E8FEA90E0918380831E
:104CB00085E0848F88E893E1938382834CE251E01E
:104CC0005583448322E330E03783268385E090E0F8
:104CD000918780878AE090E09387828764E170E023
:104CE000758764875787468744E650E0518B408B31
:104CF00048E050E0538B428B48E250E0558B448BA8
:104D0000378B268B28EC30E0318F208F158E978FD4
:104D1000868F80E590E091A380A30E9433260C94B7
:104D20000C26CF93DF93CDECD1E060E0CE010E9462
:104D300011372196C11584E0D807B9F7DF91CF91DB
:104D40000895462F2091300430913104232B91F4A3
:104D50007E3F39F46E3F71F480912E0490912F04C0
:104D60000895823038F4753028F46B3018F4672FCA
:104D70000C94702D80E090E008956F927F928F9256
:104D80009F92AF92BF92CF92DF92EF92FF920F93DA
:104D90001F93CF93DF93CDB7DEB764970FB6F89428
:104DA000DEBF0FBECDBFA0901201B090130181E015
:104DB00090E09093130180931201C12CD12C712C9F
:104DC000612CE12CF12C00E010E047018C0C9D1CC3
:104DD000F801EE0FFF1FE80DF91DED50F64F25917C
:104DE0003491402F662D872D0E943A2D0F5F1F4F63
:104DF0000B30110569F786E1E80EF11C6394E5E0DC
:104E00006E12E1CF21E030E040E060E0872D0E94AB
:104E1000DE2C21E030E041E060E0872D0E94DE2CB6
:104E20007394FEE6CF0ED11C82E07812C9CF0E94A7
:104E300050261A8219821C821B821E821D821886AD
:104E40001F8288EC90E09A8789870DE211E04AE0A2
:104E500050E0B801CE0101960E943537065F1F4F22
:104E60000D37E1E01E0799F77E01FBE0EF0EF11C24
:104E70008AE0F70111928A95E9F74AE050E0B8011B
:104E8000C7010E943537065F1F4F0D3CF1E01F0739
:104E9000A1F7B0921301A092120164960FB6F89494
:104EA000DEBF0FBECDBFDF91CF911F910F91FF905D
:104EB000EF90DF90CF90BF90AF909F908F907F90BA
:104EC0006F900895883080F49B01982F8AE0989F16
:104ED000B0011124635D7E4F4AE050E0C9010E9499
:104EE000F33680E090E008958FEF9FEF089580E023
:104EF00008959091C80592FF0DC0282F2871283081
:104F000019F4877F846006C0282F2471243011F49F
:104F10008B7F886093FF0DC0282F2871283119F4EA
:104F2000877E846106C0282F2471243111F48B7E82
:104F300088612091C90520FF0DC0382F38713830A5
:104F400019F4877F816006C0382F3171313011F438
:104F50008E7F886021FF0DC0282F2871283119F419
:104F6000877E816106C0282F2171213111F48E7E48
:104F7000886194FD877E0895F894E82FE295EF709C
:104F8000F0E031A1282F2F7081E090E001C0880F60
:104F90002A95EAF7982F9095932391A392A1892BB4
:104FA00082A378940895CF93DF938238910569F1B5
:104FB000B0F48133910509F46FC048F4893291054A
:104FC00009F465C08A32910509F46BC08AC0853343
:104FD000910509F457C089339105B9F082C0833E29
:104FE000910571F138F4803E9105B1F0823E910552
:104FF00011F177C0863E9105B9F1873E9105C9F15F
:10500000843E910509F06DC024C02091C80520FDA3
:1050100053C021FD51C065C08091C80580FD46C0C8
:105020008091C90580FF48C08091C80584FD50C1AA
:1050300083EE90E04FC18091C80582FF3AC0F4CF63
:105040008091C80582FD35C08091C90580FD34C0BE
:10505000EBCF8091C90581FF35C08091C80584FDE3
:1050600037C187EE90E036C18091C80583FF27C025
:10507000F4CF8091C80583FD22C08091C90581FDD0
:1050800021C0EBCF8091C80585FD1FC021C0809154
:10509000C80585FD1DC019C08091C80586FD1BC0CF
:1050A0001DC08091C80586FD19C015C089E390E038
:1050B00011C182EE90E00EC180EE90E00BC186EE51
:1050C00090E008C184EE90E005C189E290E002C161
:1050D00085E390E0FFC08AE290E0FCC081E390E0CD
:1050E000F9C0811531E5930708F069C0811540E5E5
:1050F0009407F0F09C0174E0369527957A95E1F7D6
:10510000922F9370482F437021E030E002C0220FAD
:10511000331F4A95E2F73C68392B982F9F7096957C
:10512000969540E2949FC0011124822B932BD2C00C
:10513000883E910568F5803E910508F0CBC0883A1D
:105140009105B8F4853A910548F0855AE82FF0E0CA
:10515000E05AFE4F808190E09064BCC081309105A0
:1051600009F4B3C008F4B4C08430910508F4B0C0A9
:10517000B1C08F3B910508F0ABC0885AE82FF0E032
:10518000EE0FFF1FED59FE4F808191819464A2C004
:10519000811520E2920758F4811531E0930708F059
:1051A00099C0803F910508F493C0906593C0811524
:1051B00040E4940708F48CC09F70906A8BC08115FE
:1051C00025E5920708F042C0811534E5930728F0E1
:1051D000982F8827846F906A7DC0811543E59407D6
:1051E000B0F09C012370332741E050E002C0440F2F
:1051F000551F2A95E2F7282F2695269580E2289FAD
:1052000090011124CA01822B932B9A6863C08115E7
:1052100022E5920728F4982F8827816F906A5AC058
:105220009C012370332741E050E002C0440F551F1A
:105230002A95E2F7282F2695269580E2289F90014F
:105240001124CA01822B932B9C6844C0EC01811568
:1052500039E59307A8F48115984528F09C2F8827F5
:10526000806F906A37C0C11586E5D80788F58C2F06
:105270000E9479278F7190E0982F882790622AC02A
:1052800081152AE5920790F48C2F8F700E94792760
:1052900094E0D695C7959A95E1F7CF70D0E0DC2FD2
:1052A000CC27D0699E01282BC90114C090568115C6
:1052B000904270F48D2F8F710E947927282F2F71C3
:1052C000CE0199279062922B05C081E090E002C048
:1052D00080E090E0DF91CF910895CF9384E090E05B
:1052E0000E940337C82F82E290E00E9403372C2FE0
:1052F00030E0A901582BCA01CF9108956AEE7EEFE4
:1053000080E090E00E942F3760E082E090E00E9411
:10531000113760E083E090E00E94113710924F0651
:1053200060E084E090E00E94113760E082E290E06B
:105330000E94113760E085E090E00E94113760E044
:1053400086E090E00E9411376FEF87E090E00E94C6
:10535000113740E050E0BA0188E090E00E94233726
:1053600060E08DE090E00E94113740E050E0BA012B
:1053700088E190E00E94233760E087E190E00E949E
:10538000113740E050E0BA018CE190E00E942337F1
:1053900060E070E080E290E00E942F3740E050E053
:1053A000BA0188E190E00E94233780E00E944D2EF0
:1053B0000E946B2E40E050E0BA018FE090E00E9426
:1053C000233740E050E0BA0183E190E00C942337AA
:1053D00080913E06882331F010923E0610923D06E1
:1053E00010923C06089580959091960589238093AC
:1053F0009605089580959091E30489238093E304B2
:105400000895CF93C091C905C2FB992790F99817C9
:1054100081F080FBC2F9C093C9056091C80584E0A2
:1054200090E00E9411376C2F82E290E0CF910C94B3
:105430001137CF91089510923A06109239061092C2
:105440003806089520913A068095822380933A0683
:10545000982F977041F430E0482F082E000C550B20
:105460002417350721F49091C90592FF07C085954F
:10547000859585950E942B160C941B2A0895809182
:1054800037068111109237060895209136069091C3
:10549000F5052917B1F030E0F90153E0EE0FFF1FD9
:1054A0005A95E1F7EA50FA4F5181561306C05081E0
:1054B000581303C05281541306C02F5F3F4F27700B
:1054C000E8CF80E0089581E00895809136069091BC
:1054D000F505891719F08F5F8770FBCF08959091BC
:1054E000C90592FD10C098E0899F90011124262BD8
:1054F00020933A060E9437160E9443229093390661
:105500008093380608950C943716809199059091F0
:105510009A05892B89F00E94432220913C06309104
:105520003D06AC01421B530B81E02091990530915F
:105530009A054217530708F480E08170089590910E
:10554000E30480919605892B90913B06892B8093EB
:10555000CD0580913E06882351F180919905909167
:105560009A05892B29F00E94852A81110E94E82939
:105570009091CD0580913E06892B8093CD05809139
:105580001101882331F08091C80587FF02C08EE1A8
:1055900001C086E0EFECF5E090E0815028F0219129
:1055A0002223D9F39F5FF9CF91110E94E829E0915E
:1055B000BF05F091C0053097A9F0809111018823B3
:1055C00059F08091C80587FF07C08091CD05809371
:1055D000CE0585E08093CD050280F381E02D8DEC32
:1055E00095E0099408958F929F92AF92BF92CF92C7
:1055F000DF92EF92FF920F931F93CF93DF93CDB77C
:10560000DEB72A970FB6F894DEBF0FBECDBFAE014E
:105610004F5F5F4F7A018AE0DA011D928A95E9F7C0
:1056200009E211E06A01AA24A394B12CF801808157
:105630008F3F09F44DC0F894E82FE295EF70F0E049
:1056400021A18F70A50102C0440F551F8A95E2F772
:10565000CA01922F982B91A392A18095892382A3AE
:10566000789400C0EEE2F1E020E030E0812C912C53
:1056700081918F3FC1F0A82FA295AF70B0E09096B6
:105680004C9150E08F70DA0102C0B595A7958A95CC
:10569000E2F7A0FD08C0C501022E02C0880F991FC5
:1056A0000A94E2F702C080E090E0882A992A2F5FEE
:1056B0003F4F2B303105E1F6F80180818F3F11F02B
:1056C0000E94BC27F0EAFA95F1F7D6018D929C92E0
:1056D0000F5F1F4FB2E0CB0ED11CE1E00E321E0770
:1056E00009F0A4CF4AE050E0B70184E991E00E94BC
:1056F0007A3701E0009709F400E0892B89F08AE00D
:10570000F701A4E9B1E001900D928A95E1F781E0FB
:10571000809341060E9443229093400680933F0667
:1057200080914106882391F180913F069091400637
:105730000E942822059750F1809194019091950143
:105740009093D2018093D10180919601909197011D
:105750009093D4018093D301809198019091990105
:105760009093D6018093D50180919A0190919B01ED
:105770009093D8018093D70180919C0190919D01D5
:105780009093DA018093D901109241068091200113
:105790008F3F71F110E086E1982E20C0929EF001BB
:1057A000939EF00D1124EA51FB4FC288D388C11497
:1057B000D10421F4C090AF05D090B005929E500165
:1057C000939EB00C1124A5014A515B4F7A01DA0176
:1057D00016968C911697811110C01F5F212F30E013
:1057E00080912001082E000C990B82179307B4F6C4
:1057F00080911C01811113C03AC01D968D919C911E
:105800001E970E942822C816D90638F7C7010E94A1
:10581000C023C50184519B4F0E947923DECF809124
:10582000E1049091E204009711F10E942822209156
:105830003B0430913C0428173907C8F49091DF04E9
:105840008091E004981759F00E94902410923C0433
:1058500010923B041092E2041092E10408C00E94EE
:1058600022241092E2041092E1040E94712480919B
:10587000B20580FF1CC080911F0182FF18C00E94EA
:1058800043222091BB053091BC05AC01421B530B58
:1058900020911D0130911E014217530740F041E055
:1058A000BC018091B9059091BA050E941823802F00
:1058B0002A960FB6F894DEBF0FBECDBFDF91CF9111
:1058C0001F910F91FF90EF90DF90CF90BF90AF901E
:1058D0009F908F900895CF92DF92EF92FF920F9357
:1058E0001F93CF93DF938091F20582958F7009F01B
:1058F0005CC08091EF05882309F457C0C09136063B
:105900008091F505C81709F450C0F090ED05E090BE
:10591000EE05C090F005D090F105A6016E2D8F2DFB
:105920000E94E523D0E081113DC08E0183E0000F8D
:10593000111F8A95E1F7F801EA50FA4F81818E1123
:1059400031C080818F112EC0828181112BC0E380F4
:10595000F480EC18FD0860E08DEE95E00E9429339C
:105960008091AF059091B005E816F906D8F48091C2
:10597000F2058F7080618093F205F801E550FA4FCF
:1059800080818F70806180838DEE95E00E94490E4A
:10599000DF91CF911F910F91FF90EF90DF90CF900B
:1059A0000C94652A2196C770ABCFDF91CF911F91E0
:1059B0000F91FF90EF90DF90CF9008950F931F937A
:1059C000CF93DF93823038F5611125C0423018F54E
:1059D00021159CE5390731F4609112017091130192
:1059E000672BC9F08901C42FD0E0CC0FDD1F94E0F4
:1059F000899FC00DD11D1124CD5FDE4F612FCE01D7
:105A00000E941137602FCE010196DF91CF911F9137
:105A10000F910C941137DF91CF911F910F91089541
:105A20000F931F93CF93DF938230E8F461111BC073
:105A30004230C8F4C42FD0E0CC0FDD1F24E0829F99
:105A4000C00DD11D1124CD5FDE4FCE010E94033762
:105A500090E0182F0027CE0101960E94033798018D
:105A6000282BC90102C080E090E0DF91CF911F9107
:105A70000F9108950F931F93CF93DF93823058F5C2
:105A8000653048F54B3038F521159CE5390731F480
:105A9000E0911201F0911301EF2BE9F08901C42F7D
:105AA000D0E0CC0FDD1F96E1699FC00DD11D112400
:105AB0009EE6899FC00DD11D1124612FCE018796CE
:105AC0000E941137602FCE018896DF91CF911F91F0
:105AD0000F910C941137DF91CF911F910F91089581
